{"contracts/advanced/ScrollGenLRT.sol":{"ScrollGenLRT":{"abi":[{"inputs":[{"internalType":"address","name":"_sgtToken","type":"address"}],"stateMutability":"nonpayable","type":"constructor"},{"inputs":[{"internalType":"address","name":"spender","type":"address"},{"internalType":"uint256","name":"allowance","type":"uint256"},{"internalType":"uint256","name":"needed","type":"uint256"}],"name":"ERC20InsufficientAllowance","type":"error"},{"inputs":[{"internalType":"address","name":"sender","type":"address"},{"internalType":"uint256","name":"balance","type":"uint256"},{"internalType":"uint256","name":"needed","type":"uint256"}],"name":"ERC20InsufficientBalance","type":"error"},{"inputs":[{"internalType":"address","name":"approver","type":"address"}],"name":"ERC20InvalidApprover","type":"error"},{"inputs":[{"internalType":"address","name":"receiver","type":"address"}],"name":"ERC20InvalidReceiver","type":"error"},{"inputs":[{"internalType":"address","name":"sender","type":"address"}],"name":"ERC20InvalidSender","type":"error"},{"inputs":[{"internalType":"address","name":"spender","type":"address"}],"name":"ERC20InvalidSpender","type":"error"},{"inputs":[{"internalType":"address","name":"owner","type":"address"}],"name":"OwnableInvalidOwner","type":"error"},{"inputs":[{"internalType":"address","name":"account","type":"address"}],"name":"OwnableUnauthorizedAccount","type":"error"},{"inputs":[],"name":"ReentrancyGuardReentrantCall","type":"error"},{"inputs":[{"internalType":"address","name":"token","type":"address"}],"name":"SafeERC20FailedOperation","type":"error"},{"anonymous":false,"inputs":[{"indexed":true,"internalType":"address","name":"owner","type":"address"},{"indexed":true,"internalType":"address","name":"spender","type":"address"},{"indexed":false,"internalType":"uint256","name":"value","type":"uint256"}],"name":"Approval","type":"event"},{"anonymous":false,"inputs":[{"indexed":true,"internalType":"address","name":"previousOwner","type":"address"},{"indexed":true,"internalType":"address","name":"newOwner","type":"address"}],"name":"OwnershipTransferred","type":"event"},{"anonymous":false,"inputs":[{"indexed":true,"internalType":"address","name":"user","type":"address"},{"indexed":false,"internalType":"uint256","name":"requestId","type":"uint256"},{"indexed":false,"internalType":"uint256","name":"sgtAmount","type":"uint256"}],"name":"RedemptionClaimed","type":"event"},{"anonymous":false,"inputs":[{"indexed":true,"internalType":"address","name":"user","type":"address"},{"indexed":false,"internalType":"uint256","name":"requestId","type":"uint256"},{"indexed":false,"internalType":"uint256","name":"sSGTAmount","type":"uint256"}],"name":"RedemptionRequested","type":"event"},{"anonymous":false,"inputs":[{"indexed":true,"internalType":"address","name":"user","type":"address"},{"indexed":false,"internalType":"uint256","name":"sgtAmount","type":"uint256"},{"indexed":false,"internalType":"uint256","name":"sSGTMinted","type":"uint256"}],"name":"Restaked","type":"event"},{"anonymous":false,"inputs":[{"indexed":true,"internalType":"address","name":"from","type":"address"},{"indexed":true,"internalType":"address","name":"to","type":"address"},{"indexed":false,"internalType":"uint256","name":"value","type":"uint256"}],"name":"Transfer","type":"event"},{"anonymous":false,"inputs":[{"indexed":false,"internalType":"uint256","name":"amount","type":"uint256"},{"indexed":false,"internalType":"uint256","name":"newExchangeRate","type":"uint256"}],"name":"YieldAccrued","type":"event"},{"anonymous":false,"inputs":[{"indexed":false,"internalType":"uint256","name":"newRate","type":"uint256"}],"name":"YieldRateUpdated","type":"event"},{"inputs":[],"name":"PRECISION","outputs":[{"internalType":"uint256","name":"","type":"uint256"}],"stateMutability":"view","type":"function"},{"inputs":[],"name":"accrueYield","outputs":[],"stateMutability":"nonpayable","type":"function"},{"inputs":[{"internalType":"address","name":"owner","type":"address"},{"internalType":"address","name":"spender","type":"address"}],"name":"allowance","outputs":[{"internalType":"uint256","name":"","type":"uint256"}],"stateMutability":"view","type":"function"},{"inputs":[{"internalType":"address","name":"spender","type":"address"},{"internalType":"uint256","name":"value","type":"uint256"}],"name":"approve","outputs":[{"internalType":"bool","name":"","type":"bool"}],"stateMutability":"nonpayable","type":"function"},{"inputs":[{"internalType":"address","name":"account","type":"address"}],"name":"balanceOf","outputs":[{"internalType":"uint256","name":"","type":"uint256"}],"stateMutability":"view","type":"function"},{"inputs":[{"internalType":"uint256","name":"requestId","type":"uint256"}],"name":"claimRedeem","outputs":[],"stateMutability":"nonpayable","type":"function"},{"inputs":[{"internalType":"uint256","name":"sSGTAmount","type":"uint256"}],"name":"convertToSGT","outputs":[{"internalType":"uint256","name":"","type":"uint256"}],"stateMutability":"view","type":"function"},{"inputs":[{"internalType":"uint256","name":"sgtAmount","type":"uint256"}],"name":"convertTosSGT","outputs":[{"internalType":"uint256","name":"","type":"uint256"}],"stateMutability":"view","type":"function"},{"inputs":[],"name":"decimals","outputs":[{"internalType":"uint8","name":"","type":"uint8"}],"stateMutability":"view","type":"function"},{"inputs":[{"internalType":"uint256","name":"amount","type":"uint256"}],"name":"depositYield","outputs":[],"stateMutability":"nonpayable","type":"function"},{"inputs":[],"name":"getEstimatedAPY","outputs":[{"internalType":"uint256","name":"","type":"uint256"}],"stateMutability":"view","type":"function"},{"inputs":[],"name":"getExchangeRate","outputs":[{"internalType":"uint256","name":"","type":"uint256"}],"stateMutability":"view","type":"function"},{"inputs":[{"internalType":"uint256","name":"requestId","type":"uint256"}],"name":"getTimeUntilClaimable","outputs":[{"internalType":"uint256","name":"","type":"uint256"}],"stateMutability":"view","type":"function"},{"inputs":[],"name":"getTotalStakedValue","outputs":[{"internalType":"uint256","name":"","type":"uint256"}],"stateMutability":"view","type":"function"},{"inputs":[{"internalType":"address","name":"user","type":"address"}],"name":"getUserRequests","outputs":[{"internalType":"uint256[]","name":"","type":"uint256[]"}],"stateMutability":"view","type":"function"},{"inputs":[{"internalType":"uint256","name":"requestId","type":"uint256"}],"name":"isClaimable","outputs":[{"internalType":"bool","name":"","type":"bool"}],"stateMutability":"view","type":"function"},{"inputs":[],"name":"lastYieldUpdate","outputs":[{"internalType":"uint256","name":"","type":"uint256"}],"stateMutability":"view","type":"function"},{"inputs":[],"name":"minRestakeAmount","outputs":[{"internalType":"uint256","name":"","type":"uint256"}],"stateMutability":"view","type":"function"},{"inputs":[],"name":"name","outputs":[{"internalType":"string","name":"","type":"string"}],"stateMutability":"view","type":"function"},{"inputs":[],"name":"nextRequestId","outputs":[{"internalType":"uint256","name":"","type":"uint256"}],"stateMutability":"view","type":"function"},{"inputs":[],"name":"owner","outputs":[{"internalType":"address","name":"","type":"address"}],"stateMutability":"view","type":"function"},{"inputs":[],"name":"redemptionDelay","outputs":[{"internalType":"uint256","name":"","type":"uint256"}],"stateMutability":"view","type":"function"},{"inputs":[{"internalType":"uint256","name":"","type":"uint256"}],"name":"redemptionRequests","outputs":[{"internalType":"address","name":"user","type":"address"},{"internalType":"uint256","name":"sSGTAmount","type":"uint256"},{"internalType":"uint256","name":"sgtAmount","type":"uint256"},{"internalType":"uint256","name":"requestTime","type":"uint256"},{"internalType":"bool","name":"processed","type":"bool"}],"stateMutability":"view","type":"function"},{"inputs":[],"name":"renounceOwnership","outputs":[],"stateMutability":"nonpayable","type":"function"},{"inputs":[{"internalType":"uint256","name":"sSGTAmount","type":"uint256"}],"name":"requestRedeem","outputs":[{"internalType":"uint256","name":"requestId","type":"uint256"}],"stateMutability":"nonpayable","type":"function"},{"inputs":[{"internalType":"uint256","name":"amount","type":"uint256"}],"name":"restake","outputs":[{"internalType":"uint256","name":"sSGTMinted","type":"uint256"}],"stateMutability":"nonpayable","type":"function"},{"inputs":[{"internalType":"uint256","name":"newMin","type":"uint256"}],"name":"setMinRestakeAmount","outputs":[],"stateMutability":"nonpayable","type":"function"},{"inputs":[{"internalType":"uint256","name":"newDelay","type":"uint256"}],"name":"setRedemptionDelay","outputs":[],"stateMutability":"nonpayable","type":"function"},{"inputs":[{"internalType":"uint256","name":"newRate","type":"uint256"}],"name":"setYieldRate","outputs":[],"stateMutability":"nonpayable","type":"function"},{"inputs":[],"name":"sgtToken","outputs":[{"internalType":"contract IERC20","name":"","type":"address"}],"stateMutability":"view","type":"function"},{"inputs":[],"name":"symbol","outputs":[{"internalType":"string","name":"","type":"string"}],"stateMutability":"view","type":"function"},{"inputs":[],"name":"totalStakedSGT","outputs":[{"internalType":"uint256","name":"","type":"uint256"}],"stateMutability":"view","type":"function"},{"inputs":[],"name":"totalSupply","outputs":[{"internalType":"uint256","name":"","type":"uint256"}],"stateMutability":"view","type":"function"},{"inputs":[],"name":"totalYieldAccrued","outputs":[{"internalType":"uint256","name":"","type":"uint256"}],"stateMutability":"view","type":"function"},{"inputs":[{"internalType":"address","name":"to","type":"address"},{"internalType":"uint256","name":"value","type":"uint256"}],"name":"transfer","outputs":[{"internalType":"bool","name":"","type":"bool"}],"stateMutability":"nonpayable","type":"function"},{"inputs":[{"internalType":"address","name":"from","type":"address"},{"internalType":"address","name":"to","type":"address"},{"internalType":"uint256","name":"value","type":"uint256"}],"name":"transferFrom","outputs":[{"internalType":"bool","name":"","type":"bool"}],"stateMutability":"nonpayable","type":"function"},{"inputs":[{"internalType":"address","name":"newOwner","type":"address"}],"name":"transferOwnership","outputs":[],"stateMutability":"nonpayable","type":"function"},{"inputs":[{"internalType":"address","name":"","type":"address"},{"internalType":"uint256","name":"","type":"uint256"}],"name":"userRequests","outputs":[{"internalType":"uint256","name":"","type":"uint256"}],"stateMutability":"view","type":"function"},{"inputs":[],"name":"yieldRate","outputs":[{"internalType":"uint256","name":"","type":"uint256"}],"stateMutability":"view","type":"function"}],"evm":{"bytecode":{"linkReferences":{},"object":"60a060405262093a8060095568056bc75e2d63100000600a556001600c5567016345785d8a0000600e553480156200003657600080fd5b5060405162001b7338038062001b738339810160408190526200005991620001d1565b336040518060400160405280601681526020017f5374616b6564205363726f6c6c47656e20546f6b656e00000000000000000000815250604051806040016040528060048152602001631cd4d1d560e21b8152508160039081620000be9190620002aa565b506004620000cd8282620002aa565b5050506001600160a01b0381166200010057604051631e4fbdf760e01b8152600060048201526024015b60405180910390fd5b6200010b816200017f565b5060016006556001600160a01b038116620001695760405162461bcd60e51b815260206004820152601360248201527f496e76616c6964205347542061646472657373000000000000000000000000006044820152606401620000f7565b6001600160a01b031660805242600f5562000376565b600580546001600160a01b038381166001600160a01b0319831681179093556040519116919082907f8be0079c531659141344cd1fd0a4f28419497f9722a3daafe3b4186f6b6457e090600090a35050565b600060208284031215620001e457600080fd5b81516001600160a01b0381168114620001fc57600080fd5b9392505050565b634e487b7160e01b600052604160045260246000fd5b600181811c908216806200022e57607f821691505b6020821081036200024f57634e487b7160e01b600052602260045260246000fd5b50919050565b601f821115620002a5576000816000526020600020601f850160051c81016020861015620002805750805b601f850160051c820191505b81811015620002a1578281556001016200028c565b5050505b505050565b81516001600160401b03811115620002c657620002c662000203565b620002de81620002d7845462000219565b8462000255565b602080601f831160018114620003165760008415620002fd5750858301515b600019600386901b1c1916600185901b178555620002a1565b600085815260208120601f198616915b82811015620003475788860151825594840194600190910190840162000326565b5085821015620003665787850151600019600388901b60f8161c191681555b5050505050600190811b01905550565b6080516117cc620003a7600039600081816102c6015281816107fa01528181610bdc0152610df101526117cc6000f3fe608060405234801561001057600080fd5b506004361061023d5760003560e01c806389610a091161013b578063b337cf74116100b8578063e46cf7471161007c578063e46cf7471461054b578063e6aa216c1461055e578063ee6c3bf214610566578063f1a9ee031461056f578063f2fde38b1461058257600080fd5b8063b337cf7414610459578063bce1b52014610479578063ccaad55d1461048c578063dd62ed3e14610494578063e1a0cc6f146104cd57600080fd5b8063986d95a4116100ff578063986d95a4146104085780639b31c3a81461041b578063a9059cbb14610424578063aa2f892d14610437578063aaf5eb681461044a57600080fd5b806389610a09146103ca5780638da5cb5b146103dd5780638de35f36146103ee5780638f8c8aee146103f757806395d89b411461040057600080fd5b8063313ce567116101c95780636a84a9851161018d5780636a84a98514610374578063703aa2e81461037d57806370a0823114610386578063715018a6146103af5780637cf4c01b146103b757600080fd5b8063313ce5671461032e5780633999c4881461033d5780635620a36d146103455780636627631b146103585780636999ac931461036b57600080fd5b80631630ad91116102105780631630ad91146102a0578063166ff030146102c157806318160ddd1461030057806323b872dd14610308578063263cb6b61461031b57600080fd5b8063059d9c751461024257806306fdde031461024c578063095ea7b31461026a5780631411dab01461028d575b600080fd5b61024a610595565b005b61025461059f565b6040516102619190611557565b60405180910390f35b61027d6102783660046115bd565b610631565b6040519015158152602001610261565b61024a61029b3660046115e7565b61064b565b6102b36102ae3660046115e7565b610697565b604051908152602001610261565b6102e87f000000000000000000000000000000000000000000000000000000000000000081565b6040516001600160a01b039091168152602001610261565b6002546102b3565b61027d610316366004611600565b610734565b6102b36103293660046115bd565b610758565b60405160128152602001610261565b6102b3610789565b6102b36103533660046115e7565b6107a0565b61024a6103663660046115e7565b6107c6565b6102b3600e5481565b6102b3600c5481565b6102b3600a5481565b6102b361039436600461163c565b6001600160a01b031660009081526020819052604090205490565b61024a6107d3565b61024a6103c53660046115e7565b6107e5565b61027d6103d83660046115e7565b610879565b6005546001600160a01b03166102e8565b6102b360075481565b6102b3600f5481565b6102546108f4565b6102b36104163660046115e7565b610903565b6102b360095481565b61027d6104323660046115bd565b610920565b6102b36104453660046115e7565b61092e565b6102b3670de0b6b3a764000081565b61046c61046736600461163c565b610b08565b6040516102619190611657565b6102b36104873660046115e7565b610b74565b6102b3610c90565b6102b36104a236600461169b565b6001600160a01b03918216600090815260016020908152604080832093909416825291909152205490565b6105176104db3660046115e7565b600b60205260009081526040902080546001820154600283015460038401546004909401546001600160a01b0390931693919290919060ff1685565b604080516001600160a01b03909616865260208601949094529284019190915260608301521515608082015260a001610261565b61024a6105593660046115e7565b610cd2565b6102b3610e88565b6102b360085481565b61024a61057d3660046115e7565b610ee5565b61024a61059036600461163c565b610f44565b61059d610f7f565b565b6060600380546105ae906116ce565b80601f01602080910402602001604051908101604052809291908181526020018280546105da906116ce565b80156106275780601f106105fc57610100808354040283529160200191610627565b820191906000526020600020905b81548152906001019060200180831161060a57829003601f168201915b5050505050905090565b60003361063f818585611046565b60019150505b92915050565b610653611058565b61065b610f7f565b600e8190556040518181527f5842a31a46ea5ce5b950bf6d04c8b832a9deae72e0e54bcf928f0d72123f2865906020015b60405180910390a150565b6000818152600b60209081526040808320815160a08101835281546001600160a01b03168152600182015493810193909352600281015491830191909152600381015460608301526004015460ff1615801560808301526106fb5750600092915050565b6000600954826060015161070f919061171e565b9050804210610722575060009392505050565b61072c4282611731565b949350505050565b600033610742858285611085565b61074d858585611104565b506001949350505050565b600d602052816000526040600020818154811061077457600080fd5b90600052602060002001600091509150505481565b600060085460075461079b919061171e565b905090565b60006107aa610e88565b6107bc670de0b6b3a764000084611744565b610645919061175b565b6107ce611058565b600a55565b6107db611058565b61059d6000611163565b6107ed611058565b6108226001600160a01b037f0000000000000000000000000000000000000000000000000000000000000000163330846111b5565b8060086000828254610834919061171e565b909155507ffe2ebf53456a69d7b70affc98b9021c791a9bce3af6fa5d24dfbc2db0f817b54905081610864610e88565b6040805192835260208301919091520161068c565b6000818152600b60209081526040808320815160a08101835281546001600160a01b03168152600182015493810193909352600281015491830191909152600381015460608301526004015460ff16158015608083018190526108ed575060095481606001516108e9919061171e565b4210155b9392505050565b6060600480546105ae906116ce565b6000670de0b6b3a7640000610916610e88565b6107bc9084611744565b60003361063f818585611104565b600061093861121c565b6000821161097b5760405162461bcd60e51b815260206004820152600b60248201526a16995c9bc8185b5bdd5b9d60aa1b60448201526064015b60405180910390fd5b336000908152602081905260409020548211156109d15760405162461bcd60e51b8152602060048201526014602482015273496e73756666696369656e742062616c616e636560601b6044820152606401610972565b6109d9610f7f565b6000670de0b6b3a76400006109ec610e88565b6109f69085611744565b610a00919061175b565b9050610a0c3384611246565b600c8054906000610a1c8361177d565b909155506040805160a0810182523380825260208083018881528385018781524260608601908152600060808701818152898252600b8652888220975188546001600160a01b0319166001600160a01b039091161788559351600180890191909155925160028801559051600387015591516004909501805460ff191695151595909517909455828152600d825284812080549485018155815281902090920184905582518481529182018790529294507f46949ee51143d5b58e4df83122d6c382a04f7bffbe563f78cd7fa61ee519ec08910160405180910390a250610b036001600655565b919050565b6001600160a01b0381166000908152600d6020908152604091829020805483518184028101840190945280845260609392830182828015610b6857602002820191906000526020600020905b815481526020019060010190808311610b54575b50505050509050919050565b6000610b7e61121c565b600a54821015610bc75760405162461bcd60e51b8152602060048201526014602482015273416d6f756e742062656c6f77206d696e696d756d60601b6044820152606401610972565b610bcf610f7f565b610c046001600160a01b037f0000000000000000000000000000000000000000000000000000000000000000163330856111b5565b610c0c610e88565b610c1e670de0b6b3a764000084611744565b610c28919061175b565b9050610c343382611280565b8160076000828254610c46919061171e565b9091555050604080518381526020810183905233917fa217c421e0e9357b7b1815d752952b142ddc0e23f9f14ecb8233f8f83d563c4d910160405180910390a2610b036001600655565b6000600754600003610ca25750600090565b670de0b6b3a7640000600e546301e13380610cbd9190611744565b610cc8906064611744565b61079b919061175b565b610cda61121c565b6000818152600b6020526040902080546001600160a01b03163314610d355760405162461bcd60e51b81526020600482015260116024820152702737ba103932b8bab2b9ba1037bbb732b960791b6044820152606401610972565b600481015460ff1615610d7e5760405162461bcd60e51b8152602060048201526011602482015270105b1c9958591e481c1c9bd8d95cdcd959607a1b6044820152606401610972565b6009548160030154610d90919061171e565b421015610dcf5760405162461bcd60e51b815260206004820152600d60248201526c11195b185e481b9bdd081b595d609a1b6044820152606401610972565b60048101805460ff191660011790556002810154610e19906001600160a01b037f0000000000000000000000000000000000000000000000000000000000000000169033906112b6565b806002015460076000828254610e2f9190611731565b9091555050600281015460405133917f20e504fdcba8387aee6a4eabd2423467c9dab4c788aec326e5e96cd83a8b26fb91610e7291868252602082015260400190565b60405180910390a250610e856001600655565b50565b600080610e9460025490565b905080600003610ead57670de0b6b3a764000091505090565b6000600854600754610ebf919061171e565b905081610ed4670de0b6b3a764000083611744565b610ede919061175b565b9250505090565b610eed611058565b620151808110158015610f03575062278d008111155b610f3f5760405162461bcd60e51b815260206004820152600d60248201526c496e76616c69642064656c617960981b6044820152606401610972565b600955565b610f4c611058565b6001600160a01b038116610f7657604051631e4fbdf760e01b815260006004820152602401610972565b610e8581611163565b6000600f5442610f8f9190611731565b9050801580610f9e5750600754155b15610fa65750565b6000610fbe670de0b6b3a76400006301e13380611744565b82600e54600754610fcf9190611744565b610fd99190611744565b610fe3919061175b565b90508060086000828254610ff7919061171e565b909155505042600f557ffe2ebf53456a69d7b70affc98b9021c791a9bce3af6fa5d24dfbc2db0f817b548161102a610e88565b6040805192835260208301919091520160405180910390a15050565b61105383838360016112e7565b505050565b6005546001600160a01b0316331461059d5760405163118cdaa760e01b8152336004820152602401610972565b6001600160a01b038381166000908152600160209081526040808320938616835292905220546000198110156110fe57818110156110ef57604051637dc7a0d960e11b81526001600160a01b03841660048201526024810182905260448101839052606401610972565b6110fe848484840360006112e7565b50505050565b6001600160a01b03831661112e57604051634b637e8f60e11b815260006004820152602401610972565b6001600160a01b0382166111585760405163ec442f0560e01b815260006004820152602401610972565b6110538383836113bc565b600580546001600160a01b038381166001600160a01b0319831681179093556040519116919082907f8be0079c531659141344cd1fd0a4f28419497f9722a3daafe3b4186f6b6457e090600090a35050565b6040516001600160a01b0384811660248301528381166044830152606482018390526110fe9186918216906323b872dd906084015b604051602081830303815290604052915060e01b6020820180516001600160e01b0383818316178352505050506114e6565b60026006540361123f57604051633ee5aeb560e01b815260040160405180910390fd5b6002600655565b6001600160a01b03821661127057604051634b637e8f60e11b815260006004820152602401610972565b61127c826000836113bc565b5050565b6001600160a01b0382166112aa5760405163ec442f0560e01b815260006004820152602401610972565b61127c600083836113bc565b6040516001600160a01b0383811660248301526044820183905261105391859182169063a9059cbb906064016111ea565b6001600160a01b0384166113115760405163e602df0560e01b815260006004820152602401610972565b6001600160a01b03831661133b57604051634a1406b160e11b815260006004820152602401610972565b6001600160a01b03808516600090815260016020908152604080832093871683529290522082905580156110fe57826001600160a01b0316846001600160a01b03167f8c5be1e5ebec7d5bd14f71427d1e84f3dd0314c0f7b2291e5b200ac8c7c3b925846040516113ae91815260200190565b60405180910390a350505050565b6001600160a01b0383166113e75780600260008282546113dc919061171e565b909155506114599050565b6001600160a01b0383166000908152602081905260409020548181101561143a5760405163391434e360e21b81526001600160a01b03851660048201526024810182905260448101839052606401610972565b6001600160a01b03841660009081526020819052604090209082900390555b6001600160a01b03821661147557600280548290039055611494565b6001600160a01b03821660009081526020819052604090208054820190555b816001600160a01b0316836001600160a01b03167fddf252ad1be2c89b69c2b068fc378daa952ba7f163c4a11628f55a4df523b3ef836040516114d991815260200190565b60405180910390a3505050565b600080602060008451602086016000885af180611509576040513d6000823e3d81fd5b50506000513d9150811561152157806001141561152e565b6001600160a01b0384163b155b156110fe57604051635274afe760e01b81526001600160a01b0385166004820152602401610972565b60006020808352835180602085015260005b8181101561158557858101830151858201604001528201611569565b506000604082860101526040601f19601f8301168501019250505092915050565b80356001600160a01b0381168114610b0357600080fd5b600080604083850312156115d057600080fd5b6115d9836115a6565b946020939093013593505050565b6000602082840312156115f957600080fd5b5035919050565b60008060006060848603121561161557600080fd5b61161e846115a6565b925061162c602085016115a6565b9150604084013590509250925092565b60006020828403121561164e57600080fd5b6108ed826115a6565b6020808252825182820181905260009190848201906040850190845b8181101561168f57835183529284019291840191600101611673565b50909695505050505050565b600080604083850312156116ae57600080fd5b6116b7836115a6565b91506116c5602084016115a6565b90509250929050565b600181811c908216806116e257607f821691505b60208210810361170257634e487b7160e01b600052602260045260246000fd5b50919050565b634e487b7160e01b600052601160045260246000fd5b8082018082111561064557610645611708565b8181038181111561064557610645611708565b808202811582820484141761064557610645611708565b60008261177857634e487b7160e01b600052601260045260246000fd5b500490565b60006001820161178f5761178f611708565b506001019056fea264697066735822122089a4955de00a5a821eaf990f60ee2d374092c427d1a70046f43722e7d6c153b464736f6c63430008180033","opcodes":"PUSH1 0xA0 PUSH1 0x40 MSTORE PUSH3 0x93A80 PUSH1 0x9 SSTORE PUSH9 0x56BC75E2D63100000 PUSH1 0xA SSTORE PUSH1 0x1 PUSH1 0xC SSTORE PUSH8 0x16345785D8A0000 PUSH1 0xE SSTORE CALLVALUE DUP1 ISZERO PUSH3 0x36 JUMPI PUSH1 0x0 DUP1 REVERT JUMPDEST POP PUSH1 0x40 MLOAD PUSH3 0x1B73 CODESIZE SUB DUP1 PUSH3 0x1B73 DUP4 CODECOPY DUP2 ADD PUSH1 0x40 DUP2 SWAP1 MSTORE PUSH3 0x59 SWAP2 PUSH3 0x1D1 JUMP JUMPDEST CALLER PUSH1 0x40 MLOAD DUP1 PUSH1 0x40 ADD PUSH1 0x40 MSTORE DUP1 PUSH1 0x16 DUP2 MSTORE PUSH1 0x20 ADD PUSH32 0x5374616B6564205363726F6C6C47656E20546F6B656E00000000000000000000 DUP2 MSTORE POP PUSH1 0x40 MLOAD DUP1 PUSH1 0x40 ADD PUSH1 0x40 MSTORE DUP1 PUSH1 0x4 DUP2 MSTORE PUSH1 0x20 ADD PUSH4 0x1CD4D1D5 PUSH1 0xE2 SHL DUP2 MSTORE POP DUP2 PUSH1 0x3 SWAP1 DUP2 PUSH3 0xBE SWAP2 SWAP1 PUSH3 0x2AA JUMP JUMPDEST POP PUSH1 0x4 PUSH3 0xCD DUP3 DUP3 PUSH3 0x2AA JUMP JUMPDEST POP POP POP PUSH1 0x1 PUSH1 0x1 PUSH1 0xA0 SHL SUB DUP2 AND PUSH3 0x100 JUMPI PUSH1 0x40 MLOAD PUSH4 0x1E4FBDF7 PUSH1 0xE0 SHL DUP2 MSTORE PUSH1 0x0 PUSH1 0x4 DUP3 ADD MSTORE PUSH1 0x24 ADD JUMPDEST PUSH1 0x40 MLOAD DUP1 SWAP2 SUB SWAP1 REVERT JUMPDEST PUSH3 0x10B DUP2 PUSH3 0x17F JUMP JUMPDEST POP PUSH1 0x1 PUSH1 0x6 SSTORE PUSH1 0x1 PUSH1 0x1 PUSH1 0xA0 SHL SUB DUP2 AND PUSH3 0x169 JUMPI PUSH1 0x40 MLOAD PUSH3 0x461BCD PUSH1 0xE5 SHL DUP2 MSTORE PUSH1 0x20 PUSH1 0x4 DUP3 ADD MSTORE PUSH1 0x13 PUSH1 0x24 DUP3 ADD MSTORE PUSH32 0x496E76616C696420534754206164647265737300000000000000000000000000 PUSH1 0x44 DUP3 ADD MSTORE PUSH1 0x64 ADD PUSH3 0xF7 JUMP JUMPDEST PUSH1 0x1 PUSH1 0x1 PUSH1 0xA0 SHL SUB AND PUSH1 0x80 MSTORE TIMESTAMP PUSH1 0xF SSTORE PUSH3 0x376 JUMP JUMPDEST PUSH1 0x5 DUP1 SLOAD PUSH1 0x1 PUSH1 0x1 PUSH1 0xA0 SHL SUB DUP4 DUP2 AND PUSH1 0x1 PUSH1 0x1 PUSH1 0xA0 SHL SUB NOT DUP4 AND DUP2 OR SWAP1 SWAP4 SSTORE PUSH1 0x40 MLOAD SWAP2 AND SWAP2 SWAP1 DUP3 SWAP1 PUSH32 0x8BE0079C531659141344CD1FD0A4F28419497F9722A3DAAFE3B4186F6B6457E0 SWAP1 PUSH1 0x0 SWAP1 LOG3 POP POP JUMP JUMPDEST PUSH1 0x0 PUSH1 0x20 DUP3 DUP5 SUB SLT ISZERO PUSH3 0x1E4 JUMPI PUSH1 0x0 DUP1 REVERT JUMPDEST DUP2 MLOAD PUSH1 0x1 PUSH1 0x1 PUSH1 0xA0 SHL SUB DUP2 AND DUP2 EQ PUSH3 0x1FC JUMPI PUSH1 0x0 DUP1 REVERT JUMPDEST SWAP4 SWAP3 POP POP POP JUMP JUMPDEST PUSH4 0x4E487B71 PUSH1 0xE0 SHL PUSH1 0x0 MSTORE PUSH1 0x41 PUSH1 0x4 MSTORE PUSH1 0x24 PUSH1 0x0 REVERT JUMPDEST PUSH1 0x1 DUP2 DUP2 SHR SWAP1 DUP3 AND DUP1 PUSH3 0x22E JUMPI PUSH1 0x7F DUP3 AND SWAP2 POP JUMPDEST PUSH1 0x20 DUP3 LT DUP2 SUB PUSH3 0x24F JUMPI PUSH4 0x4E487B71 PUSH1 0xE0 SHL PUSH1 0x0 MSTORE PUSH1 0x22 PUSH1 0x4 MSTORE PUSH1 0x24 PUSH1 0x0 REVERT JUMPDEST POP SWAP2 SWAP1 POP JUMP JUMPDEST PUSH1 0x1F DUP3 GT ISZERO PUSH3 0x2A5 JUMPI PUSH1 0x0 DUP2 PUSH1 0x0 MSTORE PUSH1 0x20 PUSH1 0x0 KECCAK256 PUSH1 0x1F DUP6 ADD PUSH1 0x5 SHR DUP2 ADD PUSH1 0x20 DUP7 LT ISZERO PUSH3 0x280 JUMPI POP DUP1 JUMPDEST PUSH1 0x1F DUP6 ADD PUSH1 0x5 SHR DUP3 ADD SWAP2 POP JUMPDEST DUP2 DUP2 LT ISZERO PUSH3 0x2A1 JUMPI DUP3 DUP2 SSTORE PUSH1 0x1 ADD PUSH3 0x28C JUMP JUMPDEST POP POP POP JUMPDEST POP POP POP JUMP JUMPDEST DUP2 MLOAD PUSH1 0x1 PUSH1 0x1 PUSH1 0x40 SHL SUB DUP2 GT ISZERO PUSH3 0x2C6 JUMPI PUSH3 0x2C6 PUSH3 0x203 JUMP JUMPDEST PUSH3 0x2DE DUP2 PUSH3 0x2D7 DUP5 SLOAD PUSH3 0x219 JUMP JUMPDEST DUP5 PUSH3 0x255 JUMP JUMPDEST PUSH1 0x20 DUP1 PUSH1 0x1F DUP4 GT PUSH1 0x1 DUP2 EQ PUSH3 0x316 JUMPI PUSH1 0x0 DUP5 ISZERO PUSH3 0x2FD JUMPI POP DUP6 DUP4 ADD MLOAD JUMPDEST PUSH1 0x0 NOT PUSH1 0x3 DUP7 SWAP1 SHL SHR NOT AND PUSH1 0x1 DUP6 SWAP1 SHL OR DUP6 SSTORE PUSH3 0x2A1 JUMP JUMPDEST PUSH1 0x0 DUP6 DUP2 MSTORE PUSH1 0x20 DUP2 KECCAK256 PUSH1 0x1F NOT DUP7 AND SWAP2 JUMPDEST DUP3 DUP2 LT ISZERO PUSH3 0x347 JUMPI DUP9 DUP7 ADD MLOAD DUP3 SSTORE SWAP5 DUP5 ADD SWAP5 PUSH1 0x1 SWAP1 SWAP2 ADD SWAP1 DUP5 ADD PUSH3 0x326 JUMP JUMPDEST POP DUP6 DUP3 LT ISZERO PUSH3 0x366 JUMPI DUP8 DUP6 ADD MLOAD PUSH1 0x0 NOT PUSH1 0x3 DUP9 SWAP1 SHL PUSH1 0xF8 AND SHR NOT AND DUP2 SSTORE JUMPDEST POP POP POP POP POP PUSH1 0x1 SWAP1 DUP2 SHL ADD SWAP1 SSTORE POP JUMP JUMPDEST PUSH1 0x80 MLOAD PUSH2 0x17CC PUSH3 0x3A7 PUSH1 0x0 CODECOPY PUSH1 0x0 DUP2 DUP2 PUSH2 0x2C6 ADD MSTORE DUP2 DUP2 PUSH2 0x7FA ADD MSTORE DUP2 DUP2 PUSH2 0xBDC ADD MSTORE PUSH2 0xDF1 ADD MSTORE PUSH2 0x17CC PUSH1 0x0 RETURN INVALID PUSH1 0x80 PUSH1 0x40 MSTORE CALLVALUE DUP1 ISZERO PUSH2 0x10 JUMPI PUSH1 0x0 DUP1 REVERT JUMPDEST POP PUSH1 0x4 CALLDATASIZE LT PUSH2 0x23D JUMPI PUSH1 0x0 CALLDATALOAD PUSH1 0xE0 SHR DUP1 PUSH4 0x89610A09 GT PUSH2 0x13B JUMPI DUP1 PUSH4 0xB337CF74 GT PUSH2 0xB8 JUMPI DUP1 PUSH4 0xE46CF747 GT PUSH2 0x7C JUMPI DUP1 PUSH4 0xE46CF747 EQ PUSH2 0x54B JUMPI DUP1 PUSH4 0xE6AA216C EQ PUSH2 0x55E JUMPI DUP1 PUSH4 0xEE6C3BF2 EQ PUSH2 0x566 JUMPI DUP1 PUSH4 0xF1A9EE03 EQ PUSH2 0x56F JUMPI DUP1 PUSH4 0xF2FDE38B EQ PUSH2 0x582 JUMPI PUSH1 0x0 DUP1 REVERT JUMPDEST DUP1 PUSH4 0xB337CF74 EQ PUSH2 0x459 JUMPI DUP1 PUSH4 0xBCE1B520 EQ PUSH2 0x479 JUMPI DUP1 PUSH4 0xCCAAD55D EQ PUSH2 0x48C JUMPI DUP1 PUSH4 0xDD62ED3E EQ PUSH2 0x494 JUMPI DUP1 PUSH4 0xE1A0CC6F EQ PUSH2 0x4CD JUMPI PUSH1 0x0 DUP1 REVERT JUMPDEST DUP1 PUSH4 0x986D95A4 GT PUSH2 0xFF JUMPI DUP1 PUSH4 0x986D95A4 EQ PUSH2 0x408 JUMPI DUP1 PUSH4 0x9B31C3A8 EQ PUSH2 0x41B JUMPI DUP1 PUSH4 0xA9059CBB EQ PUSH2 0x424 JUMPI DUP1 PUSH4 0xAA2F892D EQ PUSH2 0x437 JUMPI DUP1 PUSH4 0xAAF5EB68 EQ PUSH2 0x44A JUMPI PUSH1 0x0 DUP1 REVERT JUMPDEST DUP1 PUSH4 0x89610A09 EQ PUSH2 0x3CA JUMPI DUP1 PUSH4 0x8DA5CB5B EQ PUSH2 0x3DD JUMPI DUP1 PUSH4 0x8DE35F36 EQ PUSH2 0x3EE JUMPI DUP1 PUSH4 0x8F8C8AEE EQ PUSH2 0x3F7 JUMPI DUP1 PUSH4 0x95D89B41 EQ PUSH2 0x400 JUMPI PUSH1 0x0 DUP1 REVERT JUMPDEST DUP1 PUSH4 0x313CE567 GT PUSH2 0x1C9 JUMPI DUP1 PUSH4 0x6A84A985 GT PUSH2 0x18D JUMPI DUP1 PUSH4 0x6A84A985 EQ PUSH2 0x374 JUMPI DUP1 PUSH4 0x703AA2E8 EQ PUSH2 0x37D JUMPI DUP1 PUSH4 0x70A08231 EQ PUSH2 0x386 JUMPI DUP1 PUSH4 0x715018A6 EQ PUSH2 0x3AF JUMPI DUP1 PUSH4 0x7CF4C01B EQ PUSH2 0x3B7 JUMPI PUSH1 0x0 DUP1 REVERT JUMPDEST DUP1 PUSH4 0x313CE567 EQ PUSH2 0x32E JUMPI DUP1 PUSH4 0x3999C488 EQ PUSH2 0x33D JUMPI DUP1 PUSH4 0x5620A36D EQ PUSH2 0x345 JUMPI DUP1 PUSH4 0x6627631B EQ PUSH2 0x358 JUMPI DUP1 PUSH4 0x6999AC93 EQ PUSH2 0x36B JUMPI PUSH1 0x0 DUP1 REVERT JUMPDEST DUP1 PUSH4 0x1630AD91 GT PUSH2 0x210 JUMPI DUP1 PUSH4 0x1630AD91 EQ PUSH2 0x2A0 JUMPI DUP1 PUSH4 0x166FF030 EQ PUSH2 0x2C1 JUMPI DUP1 PUSH4 0x18160DDD EQ PUSH2 0x300 JUMPI DUP1 PUSH4 0x23B872DD EQ PUSH2 0x308 JUMPI DUP1 PUSH4 0x263CB6B6 EQ PUSH2 0x31B JUMPI PUSH1 0x0 DUP1 REVERT JUMPDEST DUP1 PUSH4 0x59D9C75 EQ PUSH2 0x242 JUMPI DUP1 PUSH4 0x6FDDE03 EQ PUSH2 0x24C JUMPI DUP1 PUSH4 0x95EA7B3 EQ PUSH2 0x26A JUMPI DUP1 PUSH4 0x1411DAB0 EQ PUSH2 0x28D JUMPI JUMPDEST PUSH1 0x0 DUP1 REVERT JUMPDEST PUSH2 0x24A PUSH2 0x595 JUMP JUMPDEST STOP JUMPDEST PUSH2 0x254 PUSH2 0x59F JUMP JUMPDEST PUSH1 0x40 MLOAD PUSH2 0x261 SWAP2 SWAP1 PUSH2 0x1557 JUMP JUMPDEST PUSH1 0x40 MLOAD DUP1 SWAP2 SUB SWAP1 RETURN JUMPDEST PUSH2 0x27D PUSH2 0x278 CALLDATASIZE PUSH1 0x4 PUSH2 0x15BD JUMP JUMPDEST PUSH2 0x631 JUMP JUMPDEST PUSH1 0x40 MLOAD SWAP1 ISZERO ISZERO DUP2 MSTORE PUSH1 0x20 ADD PUSH2 0x261 JUMP JUMPDEST PUSH2 0x24A PUSH2 0x29B CALLDATASIZE PUSH1 0x4 PUSH2 0x15E7 JUMP JUMPDEST PUSH2 0x64B JUMP JUMPDEST PUSH2 0x2B3 PUSH2 0x2AE CALLDATASIZE PUSH1 0x4 PUSH2 0x15E7 JUMP JUMPDEST PUSH2 0x697 JUMP JUMPDEST PUSH1 0x40 MLOAD SWAP1 DUP2 MSTORE PUSH1 0x20 ADD PUSH2 0x261 JUMP JUMPDEST PUSH2 0x2E8 PUSH32 0x0 DUP2 JUMP JUMPDEST PUSH1 0x40 MLOAD PUSH1 0x1 PUSH1 0x1 PUSH1 0xA0 SHL SUB SWAP1 SWAP2 AND DUP2 MSTORE PUSH1 0x20 ADD PUSH2 0x261 JUMP JUMPDEST PUSH1 0x2 SLOAD PUSH2 0x2B3 JUMP JUMPDEST PUSH2 0x27D PUSH2 0x316 CALLDATASIZE PUSH1 0x4 PUSH2 0x1600 JUMP JUMPDEST PUSH2 0x734 JUMP JUMPDEST PUSH2 0x2B3 PUSH2 0x329 CALLDATASIZE PUSH1 0x4 PUSH2 0x15BD JUMP JUMPDEST PUSH2 0x758 JUMP JUMPDEST PUSH1 0x40 MLOAD PUSH1 0x12 DUP2 MSTORE PUSH1 0x20 ADD PUSH2 0x261 JUMP JUMPDEST PUSH2 0x2B3 PUSH2 0x789 JUMP JUMPDEST PUSH2 0x2B3 PUSH2 0x353 CALLDATASIZE PUSH1 0x4 PUSH2 0x15E7 JUMP JUMPDEST PUSH2 0x7A0 JUMP JUMPDEST PUSH2 0x24A PUSH2 0x366 CALLDATASIZE PUSH1 0x4 PUSH2 0x15E7 JUMP JUMPDEST PUSH2 0x7C6 JUMP JUMPDEST PUSH2 0x2B3 PUSH1 0xE SLOAD DUP2 JUMP JUMPDEST PUSH2 0x2B3 PUSH1 0xC SLOAD DUP2 JUMP JUMPDEST PUSH2 0x2B3 PUSH1 0xA SLOAD DUP2 JUMP JUMPDEST PUSH2 0x2B3 PUSH2 0x394 CALLDATASIZE PUSH1 0x4 PUSH2 0x163C JUMP JUMPDEST PUSH1 0x1 PUSH1 0x1 PUSH1 0xA0 SHL SUB AND PUSH1 0x0 SWAP1 DUP2 MSTORE PUSH1 0x20 DUP2 SWAP1 MSTORE PUSH1 0x40 SWAP1 KECCAK256 SLOAD SWAP1 JUMP JUMPDEST PUSH2 0x24A PUSH2 0x7D3 JUMP JUMPDEST PUSH2 0x24A PUSH2 0x3C5 CALLDATASIZE PUSH1 0x4 PUSH2 0x15E7 JUMP JUMPDEST PUSH2 0x7E5 JUMP JUMPDEST PUSH2 0x27D PUSH2 0x3D8 CALLDATASIZE PUSH1 0x4 PUSH2 0x15E7 JUMP JUMPDEST PUSH2 0x879 JUMP JUMPDEST PUSH1 0x5 SLOAD PUSH1 0x1 PUSH1 0x1 PUSH1 0xA0 SHL SUB AND PUSH2 0x2E8 JUMP JUMPDEST PUSH2 0x2B3 PUSH1 0x7 SLOAD DUP2 JUMP JUMPDEST PUSH2 0x2B3 PUSH1 0xF SLOAD DUP2 JUMP JUMPDEST PUSH2 0x254 PUSH2 0x8F4 JUMP JUMPDEST PUSH2 0x2B3 PUSH2 0x416 CALLDATASIZE PUSH1 0x4 PUSH2 0x15E7 JUMP JUMPDEST PUSH2 0x903 JUMP JUMPDEST PUSH2 0x2B3 PUSH1 0x9 SLOAD DUP2 JUMP JUMPDEST PUSH2 0x27D PUSH2 0x432 CALLDATASIZE PUSH1 0x4 PUSH2 0x15BD JUMP JUMPDEST PUSH2 0x920 JUMP JUMPDEST PUSH2 0x2B3 PUSH2 0x445 CALLDATASIZE PUSH1 0x4 PUSH2 0x15E7 JUMP JUMPDEST PUSH2 0x92E JUMP JUMPDEST PUSH2 0x2B3 PUSH8 0xDE0B6B3A7640000 DUP2 JUMP JUMPDEST PUSH2 0x46C PUSH2 0x467 CALLDATASIZE PUSH1 0x4 PUSH2 0x163C JUMP JUMPDEST PUSH2 0xB08 JUMP JUMPDEST PUSH1 0x40 MLOAD PUSH2 0x261 SWAP2 SWAP1 PUSH2 0x1657 JUMP JUMPDEST PUSH2 0x2B3 PUSH2 0x487 CALLDATASIZE PUSH1 0x4 PUSH2 0x15E7 JUMP JUMPDEST PUSH2 0xB74 JUMP JUMPDEST PUSH2 0x2B3 PUSH2 0xC90 JUMP JUMPDEST PUSH2 0x2B3 PUSH2 0x4A2 CALLDATASIZE PUSH1 0x4 PUSH2 0x169B JUMP JUMPDEST PUSH1 0x1 PUSH1 0x1 PUSH1 0xA0 SHL SUB SWAP2 DUP3 AND PUSH1 0x0 SWAP1 DUP2 MSTORE PUSH1 0x1 PUSH1 0x20 SWAP1 DUP2 MSTORE PUSH1 0x40 DUP1 DUP4 KECCAK256 SWAP4 SWAP1 SWAP5 AND DUP3 MSTORE SWAP2 SWAP1 SWAP2 MSTORE KECCAK256 SLOAD SWAP1 JUMP JUMPDEST PUSH2 0x517 PUSH2 0x4DB CALLDATASIZE PUSH1 0x4 PUSH2 0x15E7 JUMP JUMPDEST PUSH1 0xB PUSH1 0x20 MSTORE PUSH1 0x0 SWAP1 DUP2 MSTORE PUSH1 0x40 SWAP1 KECCAK256 DUP1 SLOAD PUSH1 0x1 DUP3 ADD SLOAD PUSH1 0x2 DUP4 ADD SLOAD PUSH1 0x3 DUP5 ADD SLOAD PUSH1 0x4 SWAP1 SWAP5 ADD SLOAD PUSH1 0x1 PUSH1 0x1 PUSH1 0xA0 SHL SUB SWAP1 SWAP4 AND SWAP4 SWAP2 SWAP3 SWAP1 SWAP2 SWAP1 PUSH1 0xFF AND DUP6 JUMP JUMPDEST PUSH1 0x40 DUP1 MLOAD PUSH1 0x1 PUSH1 0x1 PUSH1 0xA0 SHL SUB SWAP1 SWAP7 AND DUP7 MSTORE PUSH1 0x20 DUP7 ADD SWAP5 SWAP1 SWAP5 MSTORE SWAP3 DUP5 ADD SWAP2 SWAP1 SWAP2 MSTORE PUSH1 0x60 DUP4 ADD MSTORE ISZERO ISZERO PUSH1 0x80 DUP3 ADD MSTORE PUSH1 0xA0 ADD PUSH2 0x261 JUMP JUMPDEST PUSH2 0x24A PUSH2 0x559 CALLDATASIZE PUSH1 0x4 PUSH2 0x15E7 JUMP JUMPDEST PUSH2 0xCD2 JUMP JUMPDEST PUSH2 0x2B3 PUSH2 0xE88 JUMP JUMPDEST PUSH2 0x2B3 PUSH1 0x8 SLOAD DUP2 JUMP JUMPDEST PUSH2 0x24A PUSH2 0x57D CALLDATASIZE PUSH1 0x4 PUSH2 0x15E7 JUMP JUMPDEST PUSH2 0xEE5 JUMP JUMPDEST PUSH2 0x24A PUSH2 0x590 CALLDATASIZE PUSH1 0x4 PUSH2 0x163C JUMP JUMPDEST PUSH2 0xF44 JUMP JUMPDEST PUSH2 0x59D PUSH2 0xF7F JUMP JUMPDEST JUMP JUMPDEST PUSH1 0x60 PUSH1 0x3 DUP1 SLOAD PUSH2 0x5AE SWAP1 PUSH2 0x16CE JUMP JUMPDEST DUP1 PUSH1 0x1F ADD PUSH1 0x20 DUP1 SWAP2 DIV MUL PUSH1 0x20 ADD PUSH1 0x40 MLOAD SWAP1 DUP2 ADD PUSH1 0x40 MSTORE DUP1 SWAP3 SWAP2 SWAP1 DUP2 DUP2 MSTORE PUSH1 0x20 ADD DUP3 DUP1 SLOAD PUSH2 0x5DA SWAP1 PUSH2 0x16CE JUMP JUMPDEST DUP1 ISZERO PUSH2 0x627 JUMPI DUP1 PUSH1 0x1F LT PUSH2 0x5FC JUMPI PUSH2 0x100 DUP1 DUP4 SLOAD DIV MUL DUP4 MSTORE SWAP2 PUSH1 0x20 ADD SWAP2 PUSH2 0x627 JUMP JUMPDEST DUP3 ADD SWAP2 SWAP1 PUSH1 0x0 MSTORE PUSH1 0x20 PUSH1 0x0 KECCAK256 SWAP1 JUMPDEST DUP2 SLOAD DUP2 MSTORE SWAP1 PUSH1 0x1 ADD SWAP1 PUSH1 0x20 ADD DUP1 DUP4 GT PUSH2 0x60A JUMPI DUP3 SWAP1 SUB PUSH1 0x1F AND DUP3 ADD SWAP2 JUMPDEST POP POP POP POP POP SWAP1 POP SWAP1 JUMP JUMPDEST PUSH1 0x0 CALLER PUSH2 0x63F DUP2 DUP6 DUP6 PUSH2 0x1046 JUMP JUMPDEST PUSH1 0x1 SWAP2 POP POP JUMPDEST SWAP3 SWAP2 POP POP JUMP JUMPDEST PUSH2 0x653 PUSH2 0x1058 JUMP JUMPDEST PUSH2 0x65B PUSH2 0xF7F JUMP JUMPDEST PUSH1 0xE DUP2 SWAP1 SSTORE PUSH1 0x40 MLOAD DUP2 DUP2 MSTORE PUSH32 0x5842A31A46EA5CE5B950BF6D04C8B832A9DEAE72E0E54BCF928F0D72123F2865 SWAP1 PUSH1 0x20 ADD JUMPDEST PUSH1 0x40 MLOAD DUP1 SWAP2 SUB SWAP1 LOG1 POP JUMP JUMPDEST PUSH1 0x0 DUP2 DUP2 MSTORE PUSH1 0xB PUSH1 0x20 SWAP1 DUP2 MSTORE PUSH1 0x40 DUP1 DUP4 KECCAK256 DUP2 MLOAD PUSH1 0xA0 DUP2 ADD DUP4 MSTORE DUP2 SLOAD PUSH1 0x1 PUSH1 0x1 PUSH1 0xA0 SHL SUB AND DUP2 MSTORE PUSH1 0x1 DUP3 ADD SLOAD SWAP4 DUP2 ADD SWAP4 SWAP1 SWAP4 MSTORE PUSH1 0x2 DUP2 ADD SLOAD SWAP2 DUP4 ADD SWAP2 SWAP1 SWAP2 MSTORE PUSH1 0x3 DUP2 ADD SLOAD PUSH1 0x60 DUP4 ADD MSTORE PUSH1 0x4 ADD SLOAD PUSH1 0xFF AND ISZERO DUP1 ISZERO PUSH1 0x80 DUP4 ADD MSTORE PUSH2 0x6FB JUMPI POP PUSH1 0x0 SWAP3 SWAP2 POP POP JUMP JUMPDEST PUSH1 0x0 PUSH1 0x9 SLOAD DUP3 PUSH1 0x60 ADD MLOAD PUSH2 0x70F SWAP2 SWAP1 PUSH2 0x171E JUMP JUMPDEST SWAP1 POP DUP1 TIMESTAMP LT PUSH2 0x722 JUMPI POP PUSH1 0x0 SWAP4 SWAP3 POP POP POP JUMP JUMPDEST PUSH2 0x72C TIMESTAMP DUP3 PUSH2 0x1731 JUMP JUMPDEST SWAP5 SWAP4 POP POP POP POP JUMP JUMPDEST PUSH1 0x0 CALLER PUSH2 0x742 DUP6 DUP3 DUP6 PUSH2 0x1085 JUMP JUMPDEST PUSH2 0x74D DUP6 DUP6 DUP6 PUSH2 0x1104 JUMP JUMPDEST POP PUSH1 0x1 SWAP5 SWAP4 POP POP POP POP JUMP JUMPDEST PUSH1 0xD PUSH1 0x20 MSTORE DUP2 PUSH1 0x0 MSTORE PUSH1 0x40 PUSH1 0x0 KECCAK256 DUP2 DUP2 SLOAD DUP2 LT PUSH2 0x774 JUMPI PUSH1 0x0 DUP1 REVERT JUMPDEST SWAP1 PUSH1 0x0 MSTORE PUSH1 0x20 PUSH1 0x0 KECCAK256 ADD PUSH1 0x0 SWAP2 POP SWAP2 POP POP SLOAD DUP2 JUMP JUMPDEST PUSH1 0x0 PUSH1 0x8 SLOAD PUSH1 0x7 SLOAD PUSH2 0x79B SWAP2 SWAP1 PUSH2 0x171E JUMP JUMPDEST SWAP1 POP SWAP1 JUMP JUMPDEST PUSH1 0x0 PUSH2 0x7AA PUSH2 0xE88 JUMP JUMPDEST PUSH2 0x7BC PUSH8 0xDE0B6B3A7640000 DUP5 PUSH2 0x1744 JUMP JUMPDEST PUSH2 0x645 SWAP2 SWAP1 PUSH2 0x175B JUMP JUMPDEST PUSH2 0x7CE PUSH2 0x1058 JUMP JUMPDEST PUSH1 0xA SSTORE JUMP JUMPDEST PUSH2 0x7DB PUSH2 0x1058 JUMP JUMPDEST PUSH2 0x59D PUSH1 0x0 PUSH2 0x1163 JUMP JUMPDEST PUSH2 0x7ED PUSH2 0x1058 JUMP JUMPDEST PUSH2 0x822 PUSH1 0x1 PUSH1 0x1 PUSH1 0xA0 SHL SUB PUSH32 0x0 AND CALLER ADDRESS DUP5 PUSH2 0x11B5 JUMP JUMPDEST DUP1 PUSH1 0x8 PUSH1 0x0 DUP3 DUP3 SLOAD PUSH2 0x834 SWAP2 SWAP1 PUSH2 0x171E JUMP JUMPDEST SWAP1 SWAP2 SSTORE POP PUSH32 0xFE2EBF53456A69D7B70AFFC98B9021C791A9BCE3AF6FA5D24DFBC2DB0F817B54 SWAP1 POP DUP2 PUSH2 0x864 PUSH2 0xE88 JUMP JUMPDEST PUSH1 0x40 DUP1 MLOAD SWAP3 DUP4 MSTORE PUSH1 0x20 DUP4 ADD SWAP2 SWAP1 SWAP2 MSTORE ADD PUSH2 0x68C JUMP JUMPDEST PUSH1 0x0 DUP2 DUP2 MSTORE PUSH1 0xB PUSH1 0x20 SWAP1 DUP2 MSTORE PUSH1 0x40 DUP1 DUP4 KECCAK256 DUP2 MLOAD PUSH1 0xA0 DUP2 ADD DUP4 MSTORE DUP2 SLOAD PUSH1 0x1 PUSH1 0x1 PUSH1 0xA0 SHL SUB AND DUP2 MSTORE PUSH1 0x1 DUP3 ADD SLOAD SWAP4 DUP2 ADD SWAP4 SWAP1 SWAP4 MSTORE PUSH1 0x2 DUP2 ADD SLOAD SWAP2 DUP4 ADD SWAP2 SWAP1 SWAP2 MSTORE PUSH1 0x3 DUP2 ADD SLOAD PUSH1 0x60 DUP4 ADD MSTORE PUSH1 0x4 ADD SLOAD PUSH1 0xFF AND ISZERO DUP1 ISZERO PUSH1 0x80 DUP4 ADD DUP2 SWAP1 MSTORE PUSH2 0x8ED JUMPI POP PUSH1 0x9 SLOAD DUP2 PUSH1 0x60 ADD MLOAD PUSH2 0x8E9 SWAP2 SWAP1 PUSH2 0x171E JUMP JUMPDEST TIMESTAMP LT ISZERO JUMPDEST SWAP4 SWAP3 POP POP POP JUMP JUMPDEST PUSH1 0x60 PUSH1 0x4 DUP1 SLOAD PUSH2 0x5AE SWAP1 PUSH2 0x16CE JUMP JUMPDEST PUSH1 0x0 PUSH8 0xDE0B6B3A7640000 PUSH2 0x916 PUSH2 0xE88 JUMP JUMPDEST PUSH2 0x7BC SWAP1 DUP5 PUSH2 0x1744 JUMP JUMPDEST PUSH1 0x0 CALLER PUSH2 0x63F DUP2 DUP6 DUP6 PUSH2 0x1104 JUMP JUMPDEST PUSH1 0x0 PUSH2 0x938 PUSH2 0x121C JUMP JUMPDEST PUSH1 0x0 DUP3 GT PUSH2 0x97B JUMPI PUSH1 0x40 MLOAD PUSH3 0x461BCD PUSH1 0xE5 SHL DUP2 MSTORE PUSH1 0x20 PUSH1 0x4 DUP3 ADD MSTORE PUSH1 0xB PUSH1 0x24 DUP3 ADD MSTORE PUSH11 0x16995C9BC8185B5BDD5B9D PUSH1 0xAA SHL PUSH1 0x44 DUP3 ADD MSTORE PUSH1 0x64 ADD JUMPDEST PUSH1 0x40 MLOAD DUP1 SWAP2 SUB SWAP1 REVERT JUMPDEST CALLER PUSH1 0x0 SWAP1 DUP2 MSTORE PUSH1 0x20 DUP2 SWAP1 MSTORE PUSH1 0x40 SWAP1 KECCAK256 SLOAD DUP3 GT ISZERO PUSH2 0x9D1 JUMPI PUSH1 0x40 MLOAD PUSH3 0x461BCD PUSH1 0xE5 SHL DUP2 MSTORE PUSH1 0x20 PUSH1 0x4 DUP3 ADD MSTORE PUSH1 0x14 PUSH1 0x24 DUP3 ADD MSTORE PUSH20 0x496E73756666696369656E742062616C616E6365 PUSH1 0x60 SHL PUSH1 0x44 DUP3 ADD MSTORE PUSH1 0x64 ADD PUSH2 0x972 JUMP JUMPDEST PUSH2 0x9D9 PUSH2 0xF7F JUMP JUMPDEST PUSH1 0x0 PUSH8 0xDE0B6B3A7640000 PUSH2 0x9EC PUSH2 0xE88 JUMP JUMPDEST PUSH2 0x9F6 SWAP1 DUP6 PUSH2 0x1744 JUMP JUMPDEST PUSH2 0xA00 SWAP2 SWAP1 PUSH2 0x175B JUMP JUMPDEST SWAP1 POP PUSH2 0xA0C CALLER DUP5 PUSH2 0x1246 JUMP JUMPDEST PUSH1 0xC DUP1 SLOAD SWAP1 PUSH1 0x0 PUSH2 0xA1C DUP4 PUSH2 0x177D JUMP JUMPDEST SWAP1 SWAP2 SSTORE POP PUSH1 0x40 DUP1 MLOAD PUSH1 0xA0 DUP2 ADD DUP3 MSTORE CALLER DUP1 DUP3 MSTORE PUSH1 0x20 DUP1 DUP4 ADD DUP9 DUP2 MSTORE DUP4 DUP6 ADD DUP8 DUP2 MSTORE TIMESTAMP PUSH1 0x60 DUP7 ADD SWAP1 DUP2 MSTORE PUSH1 0x0 PUSH1 0x80 DUP8 ADD DUP2 DUP2 MSTORE DUP10 DUP3 MSTORE PUSH1 0xB DUP7 MSTORE DUP9 DUP3 KECCAK256 SWAP8 MLOAD DUP9 SLOAD PUSH1 0x1 PUSH1 0x1 PUSH1 0xA0 SHL SUB NOT AND PUSH1 0x1 PUSH1 0x1 PUSH1 0xA0 SHL SUB SWAP1 SWAP2 AND OR DUP9 SSTORE SWAP4 MLOAD PUSH1 0x1 DUP1 DUP10 ADD SWAP2 SWAP1 SWAP2 SSTORE SWAP3 MLOAD PUSH1 0x2 DUP9 ADD SSTORE SWAP1 MLOAD PUSH1 0x3 DUP8 ADD SSTORE SWAP2 MLOAD PUSH1 0x4 SWAP1 SWAP6 ADD DUP1 SLOAD PUSH1 0xFF NOT AND SWAP6 ISZERO ISZERO SWAP6 SWAP1 SWAP6 OR SWAP1 SWAP5 SSTORE DUP3 DUP2 MSTORE PUSH1 0xD DUP3 MSTORE DUP5 DUP2 KECCAK256 DUP1 SLOAD SWAP5 DUP6 ADD DUP2 SSTORE DUP2 MSTORE DUP2 SWAP1 KECCAK256 SWAP1 SWAP3 ADD DUP5 SWAP1 SSTORE DUP3 MLOAD DUP5 DUP2 MSTORE SWAP2 DUP3 ADD DUP8 SWAP1 MSTORE SWAP3 SWAP5 POP PUSH32 0x46949EE51143D5B58E4DF83122D6C382A04F7BFFBE563F78CD7FA61EE519EC08 SWAP2 ADD PUSH1 0x40 MLOAD DUP1 SWAP2 SUB SWAP1 LOG2 POP PUSH2 0xB03 PUSH1 0x1 PUSH1 0x6 SSTORE JUMP JUMPDEST SWAP2 SWAP1 POP JUMP JUMPDEST PUSH1 0x1 PUSH1 0x1 PUSH1 0xA0 SHL SUB DUP2 AND PUSH1 0x0 SWAP1 DUP2 MSTORE PUSH1 0xD PUSH1 0x20 SWAP1 DUP2 MSTORE PUSH1 0x40 SWAP2 DUP3 SWAP1 KECCAK256 DUP1 SLOAD DUP4 MLOAD DUP2 DUP5 MUL DUP2 ADD DUP5 ADD SWAP1 SWAP5 MSTORE DUP1 DUP5 MSTORE PUSH1 0x60 SWAP4 SWAP3 DUP4 ADD DUP3 DUP3 DUP1 ISZERO PUSH2 0xB68 JUMPI PUSH1 0x20 MUL DUP3 ADD SWAP2 SWAP1 PUSH1 0x0 MSTORE PUSH1 0x20 PUSH1 0x0 KECCAK256 SWAP1 JUMPDEST DUP2 SLOAD DUP2 MSTORE PUSH1 0x20 ADD SWAP1 PUSH1 0x1 ADD SWAP1 DUP1 DUP4 GT PUSH2 0xB54 JUMPI JUMPDEST POP POP POP POP POP SWAP1 POP SWAP2 SWAP1 POP JUMP JUMPDEST PUSH1 0x0 PUSH2 0xB7E PUSH2 0x121C JUMP JUMPDEST PUSH1 0xA SLOAD DUP3 LT ISZERO PUSH2 0xBC7 JUMPI PUSH1 0x40 MLOAD PUSH3 0x461BCD PUSH1 0xE5 SHL DUP2 MSTORE PUSH1 0x20 PUSH1 0x4 DUP3 ADD MSTORE PUSH1 0x14 PUSH1 0x24 DUP3 ADD MSTORE PUSH20 0x416D6F756E742062656C6F77206D696E696D756D PUSH1 0x60 SHL PUSH1 0x44 DUP3 ADD MSTORE PUSH1 0x64 ADD PUSH2 0x972 JUMP JUMPDEST PUSH2 0xBCF PUSH2 0xF7F JUMP JUMPDEST PUSH2 0xC04 PUSH1 0x1 PUSH1 0x1 PUSH1 0xA0 SHL SUB PUSH32 0x0 AND CALLER ADDRESS DUP6 PUSH2 0x11B5 JUMP JUMPDEST PUSH2 0xC0C PUSH2 0xE88 JUMP JUMPDEST PUSH2 0xC1E PUSH8 0xDE0B6B3A7640000 DUP5 PUSH2 0x1744 JUMP JUMPDEST PUSH2 0xC28 SWAP2 SWAP1 PUSH2 0x175B JUMP JUMPDEST SWAP1 POP PUSH2 0xC34 CALLER DUP3 PUSH2 0x1280 JUMP JUMPDEST DUP2 PUSH1 0x7 PUSH1 0x0 DUP3 DUP3 SLOAD PUSH2 0xC46 SWAP2 SWAP1 PUSH2 0x171E JUMP JUMPDEST SWAP1 SWAP2 SSTORE POP POP PUSH1 0x40 DUP1 MLOAD DUP4 DUP2 MSTORE PUSH1 0x20 DUP2 ADD DUP4 SWAP1 MSTORE CALLER SWAP2 PUSH32 0xA217C421E0E9357B7B1815D752952B142DDC0E23F9F14ECB8233F8F83D563C4D SWAP2 ADD PUSH1 0x40 MLOAD DUP1 SWAP2 SUB SWAP1 LOG2 PUSH2 0xB03 PUSH1 0x1 PUSH1 0x6 SSTORE JUMP JUMPDEST PUSH1 0x0 PUSH1 0x7 SLOAD PUSH1 0x0 SUB PUSH2 0xCA2 JUMPI POP PUSH1 0x0 SWAP1 JUMP JUMPDEST PUSH8 0xDE0B6B3A7640000 PUSH1 0xE SLOAD PUSH4 0x1E13380 PUSH2 0xCBD SWAP2 SWAP1 PUSH2 0x1744 JUMP JUMPDEST PUSH2 0xCC8 SWAP1 PUSH1 0x64 PUSH2 0x1744 JUMP JUMPDEST PUSH2 0x79B SWAP2 SWAP1 PUSH2 0x175B JUMP JUMPDEST PUSH2 0xCDA PUSH2 0x121C JUMP JUMPDEST PUSH1 0x0 DUP2 DUP2 MSTORE PUSH1 0xB PUSH1 0x20 MSTORE PUSH1 0x40 SWAP1 KECCAK256 DUP1 SLOAD PUSH1 0x1 PUSH1 0x1 PUSH1 0xA0 SHL SUB AND CALLER EQ PUSH2 0xD35 JUMPI PUSH1 0x40 MLOAD PUSH3 0x461BCD PUSH1 0xE5 SHL DUP2 MSTORE PUSH1 0x20 PUSH1 0x4 DUP3 ADD MSTORE PUSH1 0x11 PUSH1 0x24 DUP3 ADD MSTORE PUSH17 0x2737BA103932B8BAB2B9BA1037BBB732B9 PUSH1 0x79 SHL PUSH1 0x44 DUP3 ADD MSTORE PUSH1 0x64 ADD PUSH2 0x972 JUMP JUMPDEST PUSH1 0x4 DUP2 ADD SLOAD PUSH1 0xFF AND ISZERO PUSH2 0xD7E JUMPI PUSH1 0x40 MLOAD PUSH3 0x461BCD PUSH1 0xE5 SHL DUP2 MSTORE PUSH1 0x20 PUSH1 0x4 DUP3 ADD MSTORE PUSH1 0x11 PUSH1 0x24 DUP3 ADD MSTORE PUSH17 0x105B1C9958591E481C1C9BD8D95CDCD959 PUSH1 0x7A SHL PUSH1 0x44 DUP3 ADD MSTORE PUSH1 0x64 ADD PUSH2 0x972 JUMP JUMPDEST PUSH1 0x9 SLOAD DUP2 PUSH1 0x3 ADD SLOAD PUSH2 0xD90 SWAP2 SWAP1 PUSH2 0x171E JUMP JUMPDEST TIMESTAMP LT ISZERO PUSH2 0xDCF JUMPI PUSH1 0x40 MLOAD PUSH3 0x461BCD PUSH1 0xE5 SHL DUP2 MSTORE PUSH1 0x20 PUSH1 0x4 DUP3 ADD MSTORE PUSH1 0xD PUSH1 0x24 DUP3 ADD MSTORE PUSH13 0x11195B185E481B9BDD081B595D PUSH1 0x9A SHL PUSH1 0x44 DUP3 ADD MSTORE PUSH1 0x64 ADD PUSH2 0x972 JUMP JUMPDEST PUSH1 0x4 DUP2 ADD DUP1 SLOAD PUSH1 0xFF NOT AND PUSH1 0x1 OR SWAP1 SSTORE PUSH1 0x2 DUP2 ADD SLOAD PUSH2 0xE19 SWAP1 PUSH1 0x1 PUSH1 0x1 PUSH1 0xA0 SHL SUB PUSH32 0x0 AND SWAP1 CALLER SWAP1 PUSH2 0x12B6 JUMP JUMPDEST DUP1 PUSH1 0x2 ADD SLOAD PUSH1 0x7 PUSH1 0x0 DUP3 DUP3 SLOAD PUSH2 0xE2F SWAP2 SWAP1 PUSH2 0x1731 JUMP JUMPDEST SWAP1 SWAP2 SSTORE POP POP PUSH1 0x2 DUP2 ADD SLOAD PUSH1 0x40 MLOAD CALLER SWAP2 PUSH32 0x20E504FDCBA8387AEE6A4EABD2423467C9DAB4C788AEC326E5E96CD83A8B26FB SWAP2 PUSH2 0xE72 SWAP2 DUP7 DUP3 MSTORE PUSH1 0x20 DUP3 ADD MSTORE PUSH1 0x40 ADD SWAP1 JUMP JUMPDEST PUSH1 0x40 MLOAD DUP1 SWAP2 SUB SWAP1 LOG2 POP PUSH2 0xE85 PUSH1 0x1 PUSH1 0x6 SSTORE JUMP JUMPDEST POP JUMP JUMPDEST PUSH1 0x0 DUP1 PUSH2 0xE94 PUSH1 0x2 SLOAD SWAP1 JUMP JUMPDEST SWAP1 POP DUP1 PUSH1 0x0 SUB PUSH2 0xEAD JUMPI PUSH8 0xDE0B6B3A7640000 SWAP2 POP POP SWAP1 JUMP JUMPDEST PUSH1 0x0 PUSH1 0x8 SLOAD PUSH1 0x7 SLOAD PUSH2 0xEBF SWAP2 SWAP1 PUSH2 0x171E JUMP JUMPDEST SWAP1 POP DUP2 PUSH2 0xED4 PUSH8 0xDE0B6B3A7640000 DUP4 PUSH2 0x1744 JUMP JUMPDEST PUSH2 0xEDE SWAP2 SWAP1 PUSH2 0x175B JUMP JUMPDEST SWAP3 POP POP POP SWAP1 JUMP JUMPDEST PUSH2 0xEED PUSH2 0x1058 JUMP JUMPDEST PUSH3 0x15180 DUP2 LT ISZERO DUP1 ISZERO PUSH2 0xF03 JUMPI POP PUSH3 0x278D00 DUP2 GT ISZERO JUMPDEST PUSH2 0xF3F JUMPI PUSH1 0x40 MLOAD PUSH3 0x461BCD PUSH1 0xE5 SHL DUP2 MSTORE PUSH1 0x20 PUSH1 0x4 DUP3 ADD MSTORE PUSH1 0xD PUSH1 0x24 DUP3 ADD MSTORE PUSH13 0x496E76616C69642064656C6179 PUSH1 0x98 SHL PUSH1 0x44 DUP3 ADD MSTORE PUSH1 0x64 ADD PUSH2 0x972 JUMP JUMPDEST PUSH1 0x9 SSTORE JUMP JUMPDEST PUSH2 0xF4C PUSH2 0x1058 JUMP JUMPDEST PUSH1 0x1 PUSH1 0x1 PUSH1 0xA0 SHL SUB DUP2 AND PUSH2 0xF76 JUMPI PUSH1 0x40 MLOAD PUSH4 0x1E4FBDF7 PUSH1 0xE0 SHL DUP2 MSTORE PUSH1 0x0 PUSH1 0x4 DUP3 ADD MSTORE PUSH1 0x24 ADD PUSH2 0x972 JUMP JUMPDEST PUSH2 0xE85 DUP2 PUSH2 0x1163 JUMP JUMPDEST PUSH1 0x0 PUSH1 0xF SLOAD TIMESTAMP PUSH2 0xF8F SWAP2 SWAP1 PUSH2 0x1731 JUMP JUMPDEST SWAP1 POP DUP1 ISZERO DUP1 PUSH2 0xF9E JUMPI POP PUSH1 0x7 SLOAD ISZERO JUMPDEST ISZERO PUSH2 0xFA6 JUMPI POP JUMP JUMPDEST PUSH1 0x0 PUSH2 0xFBE PUSH8 0xDE0B6B3A7640000 PUSH4 0x1E13380 PUSH2 0x1744 JUMP JUMPDEST DUP3 PUSH1 0xE SLOAD PUSH1 0x7 SLOAD PUSH2 0xFCF SWAP2 SWAP1 PUSH2 0x1744 JUMP JUMPDEST PUSH2 0xFD9 SWAP2 SWAP1 PUSH2 0x1744 JUMP JUMPDEST PUSH2 0xFE3 SWAP2 SWAP1 PUSH2 0x175B JUMP JUMPDEST SWAP1 POP DUP1 PUSH1 0x8 PUSH1 0x0 DUP3 DUP3 SLOAD PUSH2 0xFF7 SWAP2 SWAP1 PUSH2 0x171E JUMP JUMPDEST SWAP1 SWAP2 SSTORE POP POP TIMESTAMP PUSH1 0xF SSTORE PUSH32 0xFE2EBF53456A69D7B70AFFC98B9021C791A9BCE3AF6FA5D24DFBC2DB0F817B54 DUP2 PUSH2 0x102A PUSH2 0xE88 JUMP JUMPDEST PUSH1 0x40 DUP1 MLOAD SWAP3 DUP4 MSTORE PUSH1 0x20 DUP4 ADD SWAP2 SWAP1 SWAP2 MSTORE ADD PUSH1 0x40 MLOAD DUP1 SWAP2 SUB SWAP1 LOG1 POP POP JUMP JUMPDEST PUSH2 0x1053 DUP4 DUP4 DUP4 PUSH1 0x1 PUSH2 0x12E7 JUMP JUMPDEST POP POP POP JUMP JUMPDEST PUSH1 0x5 SLOAD PUSH1 0x1 PUSH1 0x1 PUSH1 0xA0 SHL SUB AND CALLER EQ PUSH2 0x59D JUMPI PUSH1 0x40 MLOAD PUSH4 0x118CDAA7 PUSH1 0xE0 SHL DUP2 MSTORE CALLER PUSH1 0x4 DUP3 ADD MSTORE PUSH1 0x24 ADD PUSH2 0x972 JUMP JUMPDEST PUSH1 0x1 PUSH1 0x1 PUSH1 0xA0 SHL SUB DUP4 DUP2 AND PUSH1 0x0 SWAP1 DUP2 MSTORE PUSH1 0x1 PUSH1 0x20 SWAP1 DUP2 MSTORE PUSH1 0x40 DUP1 DUP4 KECCAK256 SWAP4 DUP7 AND DUP4 MSTORE SWAP3 SWAP1 MSTORE KECCAK256 SLOAD PUSH1 0x0 NOT DUP2 LT ISZERO PUSH2 0x10FE JUMPI DUP2 DUP2 LT ISZERO PUSH2 0x10EF JUMPI PUSH1 0x40 MLOAD PUSH4 0x7DC7A0D9 PUSH1 0xE1 SHL DUP2 MSTORE PUSH1 0x1 PUSH1 0x1 PUSH1 0xA0 SHL SUB DUP5 AND PUSH1 0x4 DUP3 ADD MSTORE PUSH1 0x24 DUP2 ADD DUP3 SWAP1 MSTORE PUSH1 0x44 DUP2 ADD DUP4 SWAP1 MSTORE PUSH1 0x64 ADD PUSH2 0x972 JUMP JUMPDEST PUSH2 0x10FE DUP5 DUP5 DUP5 DUP5 SUB PUSH1 0x0 PUSH2 0x12E7 JUMP JUMPDEST POP POP POP POP JUMP JUMPDEST PUSH1 0x1 PUSH1 0x1 PUSH1 0xA0 SHL SUB DUP4 AND PUSH2 0x112E JUMPI PUSH1 0x40 MLOAD PUSH4 0x4B637E8F PUSH1 0xE1 SHL DUP2 MSTORE PUSH1 0x0 PUSH1 0x4 DUP3 ADD MSTORE PUSH1 0x24 ADD PUSH2 0x972 JUMP JUMPDEST PUSH1 0x1 PUSH1 0x1 PUSH1 0xA0 SHL SUB DUP3 AND PUSH2 0x1158 JUMPI PUSH1 0x40 MLOAD PUSH4 0xEC442F05 PUSH1 0xE0 SHL DUP2 MSTORE PUSH1 0x0 PUSH1 0x4 DUP3 ADD MSTORE PUSH1 0x24 ADD PUSH2 0x972 JUMP JUMPDEST PUSH2 0x1053 DUP4 DUP4 DUP4 PUSH2 0x13BC JUMP JUMPDEST PUSH1 0x5 DUP1 SLOAD PUSH1 0x1 PUSH1 0x1 PUSH1 0xA0 SHL SUB DUP4 DUP2 AND PUSH1 0x1 PUSH1 0x1 PUSH1 0xA0 SHL SUB NOT DUP4 AND DUP2 OR SWAP1 SWAP4 SSTORE PUSH1 0x40 MLOAD SWAP2 AND SWAP2 SWAP1 DUP3 SWAP1 PUSH32 0x8BE0079C531659141344CD1FD0A4F28419497F9722A3DAAFE3B4186F6B6457E0 SWAP1 PUSH1 0x0 SWAP1 LOG3 POP POP JUMP JUMPDEST PUSH1 0x40 MLOAD PUSH1 0x1 PUSH1 0x1 PUSH1 0xA0 SHL SUB DUP5 DUP2 AND PUSH1 0x24 DUP4 ADD MSTORE DUP4 DUP2 AND PUSH1 0x44 DUP4 ADD MSTORE PUSH1 0x64 DUP3 ADD DUP4 SWAP1 MSTORE PUSH2 0x10FE SWAP2 DUP7 SWAP2 DUP3 AND SWAP1 PUSH4 0x23B872DD SWAP1 PUSH1 0x84 ADD JUMPDEST PUSH1 0x40 MLOAD PUSH1 0x20 DUP2 DUP4 SUB SUB DUP2 MSTORE SWAP1 PUSH1 0x40 MSTORE SWAP2 POP PUSH1 0xE0 SHL PUSH1 0x20 DUP3 ADD DUP1 MLOAD PUSH1 0x1 PUSH1 0x1 PUSH1 0xE0 SHL SUB DUP4 DUP2 DUP4 AND OR DUP4 MSTORE POP POP POP POP PUSH2 0x14E6 JUMP JUMPDEST PUSH1 0x2 PUSH1 0x6 SLOAD SUB PUSH2 0x123F JUMPI PUSH1 0x40 MLOAD PUSH4 0x3EE5AEB5 PUSH1 0xE0 SHL DUP2 MSTORE PUSH1 0x4 ADD PUSH1 0x40 MLOAD DUP1 SWAP2 SUB SWAP1 REVERT JUMPDEST PUSH1 0x2 PUSH1 0x6 SSTORE JUMP JUMPDEST PUSH1 0x1 PUSH1 0x1 PUSH1 0xA0 SHL SUB DUP3 AND PUSH2 0x1270 JUMPI PUSH1 0x40 MLOAD PUSH4 0x4B637E8F PUSH1 0xE1 SHL DUP2 MSTORE PUSH1 0x0 PUSH1 0x4 DUP3 ADD MSTORE PUSH1 0x24 ADD PUSH2 0x972 JUMP JUMPDEST PUSH2 0x127C DUP3 PUSH1 0x0 DUP4 PUSH2 0x13BC JUMP JUMPDEST POP POP JUMP JUMPDEST PUSH1 0x1 PUSH1 0x1 PUSH1 0xA0 SHL SUB DUP3 AND PUSH2 0x12AA JUMPI PUSH1 0x40 MLOAD PUSH4 0xEC442F05 PUSH1 0xE0 SHL DUP2 MSTORE PUSH1 0x0 PUSH1 0x4 DUP3 ADD MSTORE PUSH1 0x24 ADD PUSH2 0x972 JUMP JUMPDEST PUSH2 0x127C PUSH1 0x0 DUP4 DUP4 PUSH2 0x13BC JUMP JUMPDEST PUSH1 0x40 MLOAD PUSH1 0x1 PUSH1 0x1 PUSH1 0xA0 SHL SUB DUP4 DUP2 AND PUSH1 0x24 DUP4 ADD MSTORE PUSH1 0x44 DUP3 ADD DUP4 SWAP1 MSTORE PUSH2 0x1053 SWAP2 DUP6 SWAP2 DUP3 AND SWAP1 PUSH4 0xA9059CBB SWAP1 PUSH1 0x64 ADD PUSH2 0x11EA JUMP JUMPDEST PUSH1 0x1 PUSH1 0x1 PUSH1 0xA0 SHL SUB DUP5 AND PUSH2 0x1311 JUMPI PUSH1 0x40 MLOAD PUSH4 0xE602DF05 PUSH1 0xE0 SHL DUP2 MSTORE PUSH1 0x0 PUSH1 0x4 DUP3 ADD MSTORE PUSH1 0x24 ADD PUSH2 0x972 JUMP JUMPDEST PUSH1 0x1 PUSH1 0x1 PUSH1 0xA0 SHL SUB DUP4 AND PUSH2 0x133B JUMPI PUSH1 0x40 MLOAD PUSH4 0x4A1406B1 PUSH1 0xE1 SHL DUP2 MSTORE PUSH1 0x0 PUSH1 0x4 DUP3 ADD MSTORE PUSH1 0x24 ADD PUSH2 0x972 JUMP JUMPDEST PUSH1 0x1 PUSH1 0x1 PUSH1 0xA0 SHL SUB DUP1 DUP6 AND PUSH1 0x0 SWAP1 DUP2 MSTORE PUSH1 0x1 PUSH1 0x20 SWAP1 DUP2 MSTORE PUSH1 0x40 DUP1 DUP4 KECCAK256 SWAP4 DUP8 AND DUP4 MSTORE SWAP3 SWAP1 MSTORE KECCAK256 DUP3 SWAP1 SSTORE DUP1 ISZERO PUSH2 0x10FE JUMPI DUP3 PUSH1 0x1 PUSH1 0x1 PUSH1 0xA0 SHL SUB AND DUP5 PUSH1 0x1 PUSH1 0x1 PUSH1 0xA0 SHL SUB AND PUSH32 0x8C5BE1E5EBEC7D5BD14F71427D1E84F3DD0314C0F7B2291E5B200AC8C7C3B925 DUP5 PUSH1 0x40 MLOAD PUSH2 0x13AE SWAP2 DUP2 MSTORE PUSH1 0x20 ADD SWAP1 JUMP JUMPDEST PUSH1 0x40 MLOAD DUP1 SWAP2 SUB SWAP1 LOG3 POP POP POP POP JUMP JUMPDEST PUSH1 0x1 PUSH1 0x1 PUSH1 0xA0 SHL SUB DUP4 AND PUSH2 0x13E7 JUMPI DUP1 PUSH1 0x2 PUSH1 0x0 DUP3 DUP3 SLOAD PUSH2 0x13DC SWAP2 SWAP1 PUSH2 0x171E JUMP JUMPDEST SWAP1 SWAP2 SSTORE POP PUSH2 0x1459 SWAP1 POP JUMP JUMPDEST PUSH1 0x1 PUSH1 0x1 PUSH1 0xA0 SHL SUB DUP4 AND PUSH1 0x0 SWAP1 DUP2 MSTORE PUSH1 0x20 DUP2 SWAP1 MSTORE PUSH1 0x40 SWAP1 KECCAK256 SLOAD DUP2 DUP2 LT ISZERO PUSH2 0x143A JUMPI PUSH1 0x40 MLOAD PUSH4 0x391434E3 PUSH1 0xE2 SHL DUP2 MSTORE PUSH1 0x1 PUSH1 0x1 PUSH1 0xA0 SHL SUB DUP6 AND PUSH1 0x4 DUP3 ADD MSTORE PUSH1 0x24 DUP2 ADD DUP3 SWAP1 MSTORE PUSH1 0x44 DUP2 ADD DUP4 SWAP1 MSTORE PUSH1 0x64 ADD PUSH2 0x972 JUMP JUMPDEST PUSH1 0x1 PUSH1 0x1 PUSH1 0xA0 SHL SUB DUP5 AND PUSH1 0x0 SWAP1 DUP2 MSTORE PUSH1 0x20 DUP2 SWAP1 MSTORE PUSH1 0x40 SWAP1 KECCAK256 SWAP1 DUP3 SWAP1 SUB SWAP1 SSTORE JUMPDEST PUSH1 0x1 PUSH1 0x1 PUSH1 0xA0 SHL SUB DUP3 AND PUSH2 0x1475 JUMPI PUSH1 0x2 DUP1 SLOAD DUP3 SWAP1 SUB SWAP1 SSTORE PUSH2 0x1494 JUMP JUMPDEST PUSH1 0x1 PUSH1 0x1 PUSH1 0xA0 SHL SUB DUP3 AND PUSH1 0x0 SWAP1 DUP2 MSTORE PUSH1 0x20 DUP2 SWAP1 MSTORE PUSH1 0x40 SWAP1 KECCAK256 DUP1 SLOAD DUP3 ADD SWAP1 SSTORE JUMPDEST DUP2 PUSH1 0x1 PUSH1 0x1 PUSH1 0xA0 SHL SUB AND DUP4 PUSH1 0x1 PUSH1 0x1 PUSH1 0xA0 SHL SUB AND PUSH32 0xDDF252AD1BE2C89B69C2B068FC378DAA952BA7F163C4A11628F55A4DF523B3EF DUP4 PUSH1 0x40 MLOAD PUSH2 0x14D9 SWAP2 DUP2 MSTORE PUSH1 0x20 ADD SWAP1 JUMP JUMPDEST PUSH1 0x40 MLOAD DUP1 SWAP2 SUB SWAP1 LOG3 POP POP POP JUMP JUMPDEST PUSH1 0x0 DUP1 PUSH1 0x20 PUSH1 0x0 DUP5 MLOAD PUSH1 0x20 DUP7 ADD PUSH1 0x0 DUP9 GAS CALL DUP1 PUSH2 0x1509 JUMPI PUSH1 0x40 MLOAD RETURNDATASIZE PUSH1 0x0 DUP3 RETURNDATACOPY RETURNDATASIZE DUP2 REVERT JUMPDEST POP POP PUSH1 0x0 MLOAD RETURNDATASIZE SWAP2 POP DUP2 ISZERO PUSH2 0x1521 JUMPI DUP1 PUSH1 0x1 EQ ISZERO PUSH2 0x152E JUMP JUMPDEST PUSH1 0x1 PUSH1 0x1 PUSH1 0xA0 SHL SUB DUP5 AND EXTCODESIZE ISZERO JUMPDEST ISZERO PUSH2 0x10FE JUMPI PUSH1 0x40 MLOAD PUSH4 0x5274AFE7 PUSH1 0xE0 SHL DUP2 MSTORE PUSH1 0x1 PUSH1 0x1 PUSH1 0xA0 SHL SUB DUP6 AND PUSH1 0x4 DUP3 ADD MSTORE PUSH1 0x24 ADD PUSH2 0x972 JUMP JUMPDEST PUSH1 0x0 PUSH1 0x20 DUP1 DUP4 MSTORE DUP4 MLOAD DUP1 PUSH1 0x20 DUP6 ADD MSTORE PUSH1 0x0 JUMPDEST DUP2 DUP2 LT ISZERO PUSH2 0x1585 JUMPI DUP6 DUP2 ADD DUP4 ADD MLOAD DUP6 DUP3 ADD PUSH1 0x40 ADD MSTORE DUP3 ADD PUSH2 0x1569 JUMP JUMPDEST POP PUSH1 0x0 PUSH1 0x40 DUP3 DUP7 ADD ADD MSTORE PUSH1 0x40 PUSH1 0x1F NOT PUSH1 0x1F DUP4 ADD AND DUP6 ADD ADD SWAP3 POP POP POP SWAP3 SWAP2 POP POP JUMP JUMPDEST DUP1 CALLDATALOAD PUSH1 0x1 PUSH1 0x1 PUSH1 0xA0 SHL SUB DUP2 AND DUP2 EQ PUSH2 0xB03 JUMPI PUSH1 0x0 DUP1 REVERT JUMPDEST PUSH1 0x0 DUP1 PUSH1 0x40 DUP4 DUP6 SUB SLT ISZERO PUSH2 0x15D0 JUMPI PUSH1 0x0 DUP1 REVERT JUMPDEST PUSH2 0x15D9 DUP4 PUSH2 0x15A6 JUMP JUMPDEST SWAP5 PUSH1 0x20 SWAP4 SWAP1 SWAP4 ADD CALLDATALOAD SWAP4 POP POP POP JUMP JUMPDEST PUSH1 0x0 PUSH1 0x20 DUP3 DUP5 SUB SLT ISZERO PUSH2 0x15F9 JUMPI PUSH1 0x0 DUP1 REVERT JUMPDEST POP CALLDATALOAD SWAP2 SWAP1 POP JUMP JUMPDEST PUSH1 0x0 DUP1 PUSH1 0x0 PUSH1 0x60 DUP5 DUP7 SUB SLT ISZERO PUSH2 0x1615 JUMPI PUSH1 0x0 DUP1 REVERT JUMPDEST PUSH2 0x161E DUP5 PUSH2 0x15A6 JUMP JUMPDEST SWAP3 POP PUSH2 0x162C PUSH1 0x20 DUP6 ADD PUSH2 0x15A6 JUMP JUMPDEST SWAP2 POP PUSH1 0x40 DUP5 ADD CALLDATALOAD SWAP1 POP SWAP3 POP SWAP3 POP SWAP3 JUMP JUMPDEST PUSH1 0x0 PUSH1 0x20 DUP3 DUP5 SUB SLT ISZERO PUSH2 0x164E JUMPI PUSH1 0x0 DUP1 REVERT JUMPDEST PUSH2 0x8ED DUP3 PUSH2 0x15A6 JUMP JUMPDEST PUSH1 0x20 DUP1 DUP3 MSTORE DUP3 MLOAD DUP3 DUP3 ADD DUP2 SWAP1 MSTORE PUSH1 0x0 SWAP2 SWAP1 DUP5 DUP3 ADD SWAP1 PUSH1 0x40 DUP6 ADD SWAP1 DUP5 JUMPDEST DUP2 DUP2 LT ISZERO PUSH2 0x168F JUMPI DUP4 MLOAD DUP4 MSTORE SWAP3 DUP5 ADD SWAP3 SWAP2 DUP5 ADD SWAP2 PUSH1 0x1 ADD PUSH2 0x1673 JUMP JUMPDEST POP SWAP1 SWAP7 SWAP6 POP POP POP POP POP POP JUMP JUMPDEST PUSH1 0x0 DUP1 PUSH1 0x40 DUP4 DUP6 SUB SLT ISZERO PUSH2 0x16AE JUMPI PUSH1 0x0 DUP1 REVERT JUMPDEST PUSH2 0x16B7 DUP4 PUSH2 0x15A6 JUMP JUMPDEST SWAP2 POP PUSH2 0x16C5 PUSH1 0x20 DUP5 ADD PUSH2 0x15A6 JUMP JUMPDEST SWAP1 POP SWAP3 POP SWAP3 SWAP1 POP JUMP JUMPDEST PUSH1 0x1 DUP2 DUP2 SHR SWAP1 DUP3 AND DUP1 PUSH2 0x16E2 JUMPI PUSH1 0x7F DUP3 AND SWAP2 POP JUMPDEST PUSH1 0x20 DUP3 LT DUP2 SUB PUSH2 0x1702 JUMPI PUSH4 0x4E487B71 PUSH1 0xE0 SHL PUSH1 0x0 MSTORE PUSH1 0x22 PUSH1 0x4 MSTORE PUSH1 0x24 PUSH1 0x0 REVERT JUMPDEST POP SWAP2 SWAP1 POP JUMP JUMPDEST PUSH4 0x4E487B71 PUSH1 0xE0 SHL PUSH1 0x0 MSTORE PUSH1 0x11 PUSH1 0x4 MSTORE PUSH1 0x24 PUSH1 0x0 REVERT JUMPDEST DUP1 DUP3 ADD DUP1 DUP3 GT ISZERO PUSH2 0x645 JUMPI PUSH2 0x645 PUSH2 0x1708 JUMP JUMPDEST DUP2 DUP2 SUB DUP2 DUP2 GT ISZERO PUSH2 0x645 JUMPI PUSH2 0x645 PUSH2 0x1708 JUMP JUMPDEST DUP1 DUP3 MUL DUP2 ISZERO DUP3 DUP3 DIV DUP5 EQ OR PUSH2 0x645 JUMPI PUSH2 0x645 PUSH2 0x1708 JUMP JUMPDEST PUSH1 0x0 DUP3 PUSH2 0x1778 JUMPI PUSH4 0x4E487B71 PUSH1 0xE0 SHL PUSH1 0x0 MSTORE PUSH1 0x12 PUSH1 0x4 MSTORE PUSH1 0x24 PUSH1 0x0 REVERT JUMPDEST POP DIV SWAP1 JUMP JUMPDEST PUSH1 0x0 PUSH1 0x1 DUP3 ADD PUSH2 0x178F JUMPI PUSH2 0x178F PUSH2 0x1708 JUMP JUMPDEST POP PUSH1 0x1 ADD SWAP1 JUMP INVALID LOG2 PUSH5 0x6970667358 0x22 SLT KECCAK256 DUP10 LOG4 SWAP6 TSTORE 0xE0 EXP GAS DUP3 0x1E 0xAF SWAP10 0xF PUSH1 0xEE 0x2D CALLDATACOPY BLOCKHASH SWAP3 0xC4 0x27 0xD1 0xA7 STOP CHAINID DELEGATECALL CALLDATACOPY 0x22 0xE7 0xD6 0xC1 MSTORE8 0xB4 PUSH5 0x736F6C6343 STOP ADDMOD XOR STOP CALLER "},"methodIdentifiers":{"PRECISION()":"aaf5eb68","accrueYield()":"059d9c75","allowance(address,address)":"dd62ed3e","approve(address,uint256)":"095ea7b3","balanceOf(address)":"70a08231","claimRedeem(uint256)":"e46cf747","convertToSGT(uint256)":"986d95a4","convertTosSGT(uint256)":"5620a36d","decimals()":"313ce567","depositYield(uint256)":"7cf4c01b","getEstimatedAPY()":"ccaad55d","getExchangeRate()":"e6aa216c","getTimeUntilClaimable(uint256)":"1630ad91","getTotalStakedValue()":"3999c488","getUserRequests(address)":"b337cf74","isClaimable(uint256)":"89610a09","lastYieldUpdate()":"8f8c8aee","minRestakeAmount()":"703aa2e8","name()":"06fdde03","nextRequestId()":"6a84a985","owner()":"8da5cb5b","redemptionDelay()":"9b31c3a8","redemptionRequests(uint256)":"e1a0cc6f","renounceOwnership()":"715018a6","requestRedeem(uint256)":"aa2f892d","restake(uint256)":"bce1b520","setMinRestakeAmount(uint256)":"6627631b","setRedemptionDelay(uint256)":"f1a9ee03","setYieldRate(uint256)":"1411dab0","sgtToken()":"166ff030","symbol()":"95d89b41","totalStakedSGT()":"8de35f36","totalSupply()":"18160ddd","totalYieldAccrued()":"ee6c3bf2","transfer(address,uint256)":"a9059cbb","transferFrom(address,address,uint256)":"23b872dd","transferOwnership(address)":"f2fde38b","userRequests(address,uint256)":"263cb6b6","yieldRate()":"6999ac93"}}}}}