{"contracts/LendingProtocol.sol":{"LendingProtocol":{"abi":[{"inputs":[{"internalType":"address","name":"_collateralToken","type":"address"}],"stateMutability":"nonpayable","type":"constructor"},{"inputs":[{"internalType":"address","name":"owner","type":"address"}],"name":"OwnableInvalidOwner","type":"error"},{"inputs":[{"internalType":"address","name":"account","type":"address"}],"name":"OwnableUnauthorizedAccount","type":"error"},{"inputs":[],"name":"ReentrancyGuardReentrantCall","type":"error"},{"inputs":[{"internalType":"address","name":"token","type":"address"}],"name":"SafeERC20FailedOperation","type":"error"},{"anonymous":false,"inputs":[{"indexed":true,"internalType":"address","name":"asset","type":"address"}],"name":"AssetAdded","type":"event"},{"anonymous":false,"inputs":[{"indexed":true,"internalType":"address","name":"asset","type":"address"}],"name":"AssetRemoved","type":"event"},{"anonymous":false,"inputs":[{"indexed":true,"internalType":"address","name":"user","type":"address"},{"indexed":true,"internalType":"address","name":"asset","type":"address"},{"indexed":false,"internalType":"uint256","name":"amount","type":"uint256"},{"indexed":false,"internalType":"uint256","name":"borrowIndex","type":"uint256"}],"name":"Borrowed","type":"event"},{"anonymous":false,"inputs":[{"indexed":true,"internalType":"address","name":"user","type":"address"},{"indexed":false,"internalType":"uint256","name":"borrowIndex","type":"uint256"},{"indexed":true,"internalType":"address","name":"liquidator","type":"address"}],"name":"Liquidated","type":"event"},{"anonymous":false,"inputs":[{"indexed":true,"internalType":"address","name":"previousOwner","type":"address"},{"indexed":true,"internalType":"address","name":"newOwner","type":"address"}],"name":"OwnershipTransferred","type":"event"},{"anonymous":false,"inputs":[{"indexed":true,"internalType":"address","name":"user","type":"address"},{"indexed":false,"internalType":"uint256","name":"borrowIndex","type":"uint256"},{"indexed":false,"internalType":"uint256","name":"amount","type":"uint256"}],"name":"Repaid","type":"event"},{"anonymous":false,"inputs":[{"indexed":true,"internalType":"address","name":"user","type":"address"},{"indexed":false,"internalType":"uint256","name":"amount","type":"uint256"}],"name":"Supplied","type":"event"},{"anonymous":false,"inputs":[{"indexed":true,"internalType":"address","name":"user","type":"address"},{"indexed":false,"internalType":"uint256","name":"amount","type":"uint256"}],"name":"Withdrawn","type":"event"},{"inputs":[],"name":"BASE_RATE","outputs":[{"internalType":"uint256","name":"","type":"uint256"}],"stateMutability":"view","type":"function"},{"inputs":[],"name":"LIQUIDATION_PENALTY","outputs":[{"internalType":"uint256","name":"","type":"uint256"}],"stateMutability":"view","type":"function"},{"inputs":[],"name":"LIQUIDATION_THRESHOLD","outputs":[{"internalType":"uint256","name":"","type":"uint256"}],"stateMutability":"view","type":"function"},{"inputs":[],"name":"LTV_RATIO","outputs":[{"internalType":"uint256","name":"","type":"uint256"}],"stateMutability":"view","type":"function"},{"inputs":[],"name":"OPTIMAL_UTILIZATION","outputs":[{"internalType":"uint256","name":"","type":"uint256"}],"stateMutability":"view","type":"function"},{"inputs":[],"name":"PRECISION","outputs":[{"internalType":"uint256","name":"","type":"uint256"}],"stateMutability":"view","type":"function"},{"inputs":[],"name":"RATE_SLOPE_1","outputs":[{"internalType":"uint256","name":"","type":"uint256"}],"stateMutability":"view","type":"function"},{"inputs":[],"name":"RATE_SLOPE_2","outputs":[{"internalType":"uint256","name":"","type":"uint256"}],"stateMutability":"view","type":"function"},{"inputs":[{"internalType":"address","name":"asset","type":"address"}],"name":"addSupportedAsset","outputs":[],"stateMutability":"nonpayable","type":"function"},{"inputs":[{"internalType":"address","name":"asset","type":"address"},{"internalType":"uint256","name":"amount","type":"uint256"}],"name":"borrow","outputs":[],"stateMutability":"nonpayable","type":"function"},{"inputs":[],"name":"borrowAPY","outputs":[{"internalType":"uint256","name":"","type":"uint256"}],"stateMutability":"view","type":"function"},{"inputs":[{"internalType":"address","name":"","type":"address"},{"internalType":"uint256","name":"","type":"uint256"}],"name":"borrows","outputs":[{"internalType":"uint256","name":"collateral","type":"uint256"},{"internalType":"uint256","name":"borrowed","type":"uint256"},{"internalType":"address","name":"asset","type":"address"},{"internalType":"uint256","name":"timestamp","type":"uint256"},{"internalType":"uint256","name":"interestAccrued","type":"uint256"},{"internalType":"uint256","name":"lastUpdateTime","type":"uint256"}],"stateMutability":"view","type":"function"},{"inputs":[{"internalType":"address","name":"user","type":"address"},{"internalType":"uint256","name":"borrowIndex","type":"uint256"}],"name":"calculateHealthFactor","outputs":[{"internalType":"uint256","name":"","type":"uint256"}],"stateMutability":"view","type":"function"},{"inputs":[],"name":"collateralToken","outputs":[{"internalType":"contract IERC20","name":"","type":"address"}],"stateMutability":"view","type":"function"},{"inputs":[{"internalType":"address","name":"user","type":"address"}],"name":"getTotalBorrowed","outputs":[{"internalType":"uint256","name":"","type":"uint256"}],"stateMutability":"view","type":"function"},{"inputs":[{"internalType":"address","name":"user","type":"address"}],"name":"getUserBorrows","outputs":[{"components":[{"internalType":"uint256","name":"collateral","type":"uint256"},{"internalType":"uint256","name":"borrowed","type":"uint256"},{"internalType":"address","name":"asset","type":"address"},{"internalType":"uint256","name":"timestamp","type":"uint256"},{"internalType":"uint256","name":"interestAccrued","type":"uint256"},{"internalType":"uint256","name":"lastUpdateTime","type":"uint256"}],"internalType":"struct LendingProtocol.Borrow[]","name":"","type":"tuple[]"}],"stateMutability":"view","type":"function"},{"inputs":[{"internalType":"address","name":"user","type":"address"},{"internalType":"uint256","name":"borrowIndex","type":"uint256"}],"name":"liquidate","outputs":[],"stateMutability":"nonpayable","type":"function"},{"inputs":[],"name":"owner","outputs":[{"internalType":"address","name":"","type":"address"}],"stateMutability":"view","type":"function"},{"inputs":[{"internalType":"address","name":"asset","type":"address"}],"name":"removeSupportedAsset","outputs":[],"stateMutability":"nonpayable","type":"function"},{"inputs":[],"name":"renounceOwnership","outputs":[],"stateMutability":"nonpayable","type":"function"},{"inputs":[{"internalType":"uint256","name":"borrowIndex","type":"uint256"},{"internalType":"uint256","name":"amount","type":"uint256"}],"name":"repay","outputs":[],"stateMutability":"nonpayable","type":"function"},{"inputs":[{"internalType":"address","name":"","type":"address"}],"name":"supplies","outputs":[{"internalType":"uint256","name":"amount","type":"uint256"},{"internalType":"uint256","name":"timestamp","type":"uint256"},{"internalType":"uint256","name":"interestEarned","type":"uint256"},{"internalType":"uint256","name":"lastUpdateTime","type":"uint256"}],"stateMutability":"view","type":"function"},{"inputs":[{"internalType":"uint256","name":"amount","type":"uint256"}],"name":"supply","outputs":[],"stateMutability":"nonpayable","type":"function"},{"inputs":[],"name":"supplyAPY","outputs":[{"internalType":"uint256","name":"","type":"uint256"}],"stateMutability":"view","type":"function"},{"inputs":[{"internalType":"address","name":"","type":"address"}],"name":"supportedAssets","outputs":[{"internalType":"bool","name":"","type":"bool"}],"stateMutability":"view","type":"function"},{"inputs":[{"internalType":"address","name":"","type":"address"}],"name":"totalBorrowedByAsset","outputs":[{"internalType":"uint256","name":"","type":"uint256"}],"stateMutability":"view","type":"function"},{"inputs":[],"name":"totalCollateral","outputs":[{"internalType":"uint256","name":"","type":"uint256"}],"stateMutability":"view","type":"function"},{"inputs":[],"name":"totalSupplied","outputs":[{"internalType":"uint256","name":"","type":"uint256"}],"stateMutability":"view","type":"function"},{"inputs":[{"internalType":"address","name":"newOwner","type":"address"}],"name":"transferOwnership","outputs":[],"stateMutability":"nonpayable","type":"function"},{"inputs":[],"name":"utilizationRate","outputs":[{"internalType":"uint256","name":"","type":"uint256"}],"stateMutability":"view","type":"function"},{"inputs":[{"internalType":"uint256","name":"amount","type":"uint256"}],"name":"withdraw","outputs":[],"stateMutability":"nonpayable","type":"function"}],"evm":{"bytecode":{"linkReferences":{},"object":"60a06040523480156200001157600080fd5b5060405162001c9038038062001c90833981016040819052620000349162000126565b33806200005c57604051631e4fbdf760e01b8152600060048201526024015b60405180910390fd5b6200006781620000d6565b50600180556001600160a01b038116620000c45760405162461bcd60e51b815260206004820152601860248201527f496e76616c696420636f6c6c61746572616c20746f6b656e0000000000000000604482015260640162000053565b6001600160a01b031660805262000158565b600080546001600160a01b038381166001600160a01b0319831681178455604051919092169283917f8be0079c531659141344cd1fd0a4f28419497f9722a3daafe3b4186f6b6457e09190a35050565b6000602082840312156200013957600080fd5b81516001600160a01b03811681146200015157600080fd5b9392505050565b608051611af962000197600039600081816103f6015281816106ba015281816107ba0152818161093b01528181611045015261108b0152611af96000f3fe608060405234801561001057600080fd5b50600436106101e55760003560e01c80636c321c8a1161010f578063b2016bd4116100a2578063cf762dfa11610071578063cf762dfa14610466578063d8aed1451461046e578063f2fde38b14610481578063fac09e871461049457600080fd5b8063b2016bd4146103f1578063bcbaf48714610418578063bd81579e1461042b578063cabca6431461045e57600080fd5b806390a8ae9b116100de57806390a8ae9b146103b957806393bce638146103c15780639b8621d5146103e1578063aaf5eb68146103e957600080fd5b80636c321c8a14610371578063715018a61461037957806384212635146103815780638da5cb5b1461039457600080fd5b8063397ef642116101875780634b8a3529116101565780634b8a3529146103455780635696b189146103585780635733d94814610360578063630fd0ac1461036857600080fd5b8063397ef642146102d15780633d4e3da81461031f57806341910f901461032e5780634ac8eb5f1461033c57600080fd5b8063274cee31116101c3578063274cee31146102345780632e1a7d4d1461028b578063338a19961461029e57806335403023146102be57600080fd5b80630d408512146101ea5780631c46bc6f14610210578063211ecbcb14610225575b600080fd5b6101fd6101f8366004611917565b6104a7565b6040519081526020015b60405180910390f35b61022361021e366004611941565b6105d9565b005b6101fd67011c37937e08000081565b61026b610242366004611941565b600260208190526000918252604090912080546001820154928201546003909201549092919084565b604080519485526020850193909352918301526060820152608001610207565b610223610299366004611963565b61062a565b6102b16102ac366004611941565b610824565b604051610207919061197c565b6102236102cc366004611963565b6108d8565b6102e46102df366004611917565b6109f1565b6040805196875260208701959095526001600160a01b03909316938501939093526060840152608083019190915260a082015260c001610207565b6101fd67058d15e17628000081565b6101fd66470de4df82000081565b6101fd60075481565b610223610353366004611917565b610a4e565b6101fd604281565b6101fd610d35565b6101fd60065481565b6101fd610d6b565b610223610da8565b6101fd61038f366004611941565b610dbc565b6000546001600160a01b03165b6040516001600160a01b039091168152602001610207565b6101fd604b81565b6101fd6103cf366004611941565b60056020526000908152604090205481565b6101fd600a81565b6101fd606481565b6103a17f000000000000000000000000000000000000000000000000000000000000000081565b610223610426366004611917565b610e8a565b61044e610439366004611941565b60046020526000908152604090205460ff1681565b6040519015158152602001610207565b6101fd61115a565b6101fd605081565b61022361047c3660046119fd565b6111f8565b61022361048f366004611941565b611494565b6102236104a2366004611941565b6114cf565b6001600160a01b03821660009081526003602052604081205482106104ce575060006105d3565b6001600160a01b03831660009081526003602052604081208054849081106104f8576104f8611a1f565b600091825260208083206040805160c081018252600690940290910180548452600181015492840183905260028101546001600160a01b03169184019190915260038101546060840152600481015460808401526005015460a08301529092509003610569576000199150506105d3565b60006064604b836000015161057e9190611a4b565b6105889190611a62565b90506000826080015183602001516105a09190611a84565b9050806000036105b75760001993505050506105d3565b806105c3606484611a4b565b6105cd9190611a62565b93505050505b92915050565b6105e1611569565b6001600160a01b038116600081815260046020526040808220805460ff19169055517f37803e2125c48ee96c38ddf04e826daf335b0e1603579040fd275aba6d06b6fc9190a250565b610632611596565b336000908152600260205260409020805482111561068d5760405162461bcd60e51b8152602060048201526013602482015272496e73756666696369656e7420737570706c7960681b60448201526064015b60405180910390fd5b610696336115c0565b6007546040516370a0823160e01b8152306004820152600091906001600160a01b037f000000000000000000000000000000000000000000000000000000000000000016906370a0823190602401602060405180830381865afa158015610701573d6000803e3d6000fd5b505050506040513d601f19601f820116820180604052508101906107259190611a97565b61072f9190611ab0565b90508281101561077a5760405162461bcd60e51b8152602060048201526016602482015275496e73756666696369656e74206c697175696469747960501b6044820152606401610684565b8282600001600082825461078e9190611ab0565b9250508190555082600660008282546107a79190611ab0565b909155506107e190506001600160a01b037f0000000000000000000000000000000000000000000000000000000000000000163385611663565b60405183815233907f7084f5476618d8e60b11ef0d7d3f06914655adb8793e28ff7f018d4c76d505d59060200160405180910390a2505061082160018055565b50565b6001600160a01b0381166000908152600360209081526040808320805482518185028101850190935280835260609492939192909184015b828210156108cd5760008481526020908190206040805160c08101825260068602909201805483526001808201548486015260028201546001600160a01b03169284019290925260038101546060840152600481015460808401526005015460a0830152908352909201910161085c565b505050509050919050565b6108e0611596565b600081116109255760405162461bcd60e51b81526020600482015260126024820152710416d6f756e74206d757374206265203e20360741b6044820152606401610684565b61092e336115c0565b6109636001600160a01b037f0000000000000000000000000000000000000000000000000000000000000000163330846116c7565b336000908152600260205260408120805490918391839190610986908490611a84565b909155505042600182018190556003820155600680548391906000906109ad908490611a84565b909155505060405182815233907f6473c9f7da8f23a3d810f05b3e8fb3945f0ad17deadcc09e302cdf5d58e48fe79060200160405180910390a25061082160018055565b60036020528160005260406000208181548110610a0d57600080fd5b60009182526020909120600690910201805460018201546002830154600384015460048501546005909501549396509194506001600160a01b031692909186565b610a56611596565b6001600160a01b03821660009081526004602052604090205460ff16610ab45760405162461bcd60e51b8152602060048201526013602482015272105cdcd95d081b9bdd081cdd5c1c1bdc9d1959606a1b6044820152606401610684565b60008111610af95760405162461bcd60e51b81526020600482015260126024820152710416d6f756e74206d757374206265203e20360741b6044820152606401610684565b3360009081526002602052604090208054610b4f5760405162461bcd60e51b8152602060048201526016602482015275139bc818dbdb1b185d195c985b081cdd5c1c1b1a595960521b6044820152606401610684565b6000606460428360000154610b649190611a4b565b610b6e9190611a62565b90506000610b7b33610dbc565b905081610b888583611a84565b1115610bd65760405162461bcd60e51b815260206004820152601760248201527f4578636565647320626f72726f772063617061636974790000000000000000006044820152606401610684565b336000908152600360208181526040808420815160c081018352885481528084018a81526001600160a01b038c81168386018181524260608601818152608087018c815260a08801928352885460018082018b55998e528b8e209851600690910290980197885595519787019790975590516002860180546001600160a01b03191691909416179092559351968301969096555160048201559351600594850155845291905281208054869290610c8e908490611a84565b9091555050825460078054600090610ca7908490611a84565b90915550610cc190506001600160a01b0386163386611663565b336000818152600360205260409020546001600160a01b03871691907fc14e9e6b4d98a542b05a0f6b64acd5f4cbdb914be88432d87486b664e97071a7908790610d0d90600190611ab0565b6040805192835260208301919091520160405180910390a3505050610d3160018055565b5050565b600080610d40610d6b565b90506000610d4c61115a565b90506064610d5a8383611a4b565b610d649190611a62565b9250505090565b6000600654600003610d7d5750600090565b6000610d87611706565b600654909150610d98606483611a4b565b610da29190611a62565b91505090565b610db0611569565b610dba6000611770565b565b600080805b6001600160a01b038416600090815260036020526040902054811015610e83576001600160a01b0384166000908152600360205260409020805482908110610e0b57610e0b611a1f565b90600052602060002090600602016004015460036000866001600160a01b03166001600160a01b031681526020019081526020016000208281548110610e5357610e53611a1f565b906000526020600020906006020160010154610e6f9190611a84565b610e799083611a84565b9150600101610dc1565b5092915050565b610e92611596565b6001600160a01b0382166000908152600360205260409020548110610ef05760405162461bcd60e51b8152602060048201526014602482015273092dcecc2d8d2c840c4dee4e4deee40d2dcc8caf60631b6044820152606401610684565b6001600160a01b0382166000908152600360205260408120805483908110610f1a57610f1a611a1f565b906000526020600020906006020190506000816001015411610f7e5760405162461bcd60e51b815260206004820152601760248201527f506f736974696f6e20616c726561647920636c6f7365640000000000000000006044820152606401610684565b610f8883836117c0565b6000610f9484846104a7565b905060648110610fdc5760405162461bcd60e51b8152602060048201526013602482015272506f736974696f6e206973206865616c74687960681b6044820152606401610684565b600082600401548360010154610ff29190611a84565b835490915060006064611006600a84611a4b565b6110109190611a62565b600286015490915061102d906001600160a01b03163330866116c7565b61106c3361103b8385611ab0565b6001600160a01b037f0000000000000000000000000000000000000000000000000000000000000000169190611663565b6110b26110816000546001600160a01b031690565b6001600160a01b037f0000000000000000000000000000000000000000000000000000000000000000169083611663565b600185015460028601546001600160a01b0316600090815260056020526040812080549091906110e3908490611ab0565b90915550508454600780546000906110fc908490611ab0565b9091555050600060018601819055855560405186815233906001600160a01b038916907f0c210dbb07f7aab03c41ec07f0da12daaa276057060fdded4ad506ce2d5035959060200160405180910390a35050505050610d3160018055565b600080611165610d6b565b90506050811161119e57605061118367011c37937e08000083611a4b565b61118d9190611a62565b610da29066470de4df820000611a84565b60006111ab605083611ab0565b90506111b960506064611ab0565b6111cb67058d15e17628000083611a4b565b6111d59190611a62565b6111ee67011c37937e08000066470de4df820000611a84565b610d649190611a84565b611200611596565b3360009081526003602052604090205482106112555760405162461bcd60e51b8152602060048201526014602482015273092dcecc2d8d2c840c4dee4e4deee40d2dcc8caf60631b6044820152606401610684565b33600090815260036020526040812080548490811061127657611276611a1f565b9060005260206000209060060201905060008160010154116112d25760405162461bcd60e51b8152602060048201526015602482015274109bdc9c9bddc8185b1c9958591e481c995c185a59605a1b6044820152606401610684565b6112dc33846117c0565b6000816004015482600101546112f29190611a84565b90508083111561133a5760405162461bcd60e51b8152602060048201526013602482015272105b5bdd5b9d08195e18d959591cc81919589d606a1b6044820152606401610684565b6002820154611354906001600160a01b03163330866116c7565b8083106113bd57600182015460028301546001600160a01b03166000908152600560205260408120805490919061138c908490611ab0565b90915550508154600780546000906113a5908490611ab0565b9091555050600060018301819055600483015561144e565b81600401548311156114345760008260040154846113db9190611ab0565b9050808360010160008282546113f19190611ab0565b909155505060006004840181905560028401546001600160a01b031681526005602052604081208054839290611428908490611ab0565b9091555061144e915050565b828260040160008282546114489190611ab0565b90915550505b604080518581526020810185905233917f1b8cd61ed43bec7c6bdad3a18ffee613f99c853d16c50678d248d879e1b43438910160405180910390a25050610d3160018055565b61149c611569565b6001600160a01b0381166114c657604051631e4fbdf760e01b815260006004820152602401610684565b61082181611770565b6114d7611569565b6001600160a01b03811661151d5760405162461bcd60e51b815260206004820152600d60248201526c125b9d985b1a5908185cdcd95d609a1b6044820152606401610684565b6001600160a01b038116600081815260046020526040808220805460ff19166001179055517f0e3c58ebfb2e7465fbb1c32e6b4f40c3c4f5ca77e8218a386aff8617831260d79190a250565b6000546001600160a01b03163314610dba5760405163118cdaa760e01b8152336004820152602401610684565b6002600154036115b957604051633ee5aeb560e01b815260040160405180910390fd5b6002600155565b6001600160a01b038116600090815260026020526040812080549091036115e5575050565b60008160030154426115f79190611ab0565b90506000611603610d35565b905060006a1a1601fc4ea7109e000000838386600001546116249190611a4b565b61162e9190611a4b565b6116389190611a62565b90508084600201600082825461164e9190611a84565b90915550504260039094019390935550505050565b6040516001600160a01b038381166024830152604482018390526116c291859182169063a9059cbb906064015b604051602081830303815290604052915060e01b6020820180516001600160e01b03838183161783525050505061188a565b505050565b6040516001600160a01b0384811660248301528381166044830152606482018390526117009186918216906323b872dd90608401611690565b50505050565b600080805b3360009081526003602052604090205481101561176a5733600090815260036020526040902080548290811061174357611743611a1f565b906000526020600020906006020160010154826117609190611a84565b915060010161170b565b50919050565b600080546001600160a01b038381166001600160a01b0319831681178455604051919092169283917f8be0079c531659141344cd1fd0a4f28419497f9722a3daafe3b4186f6b6457e09190a35050565b6001600160a01b03821660009081526003602052604081208054839081106117ea576117ea611a1f565b90600052602060002090600602019050806001015460000361180b57505050565b600081600501544261181d9190611ab0565b9050600061182961115a565b905060006a1a1601fc4ea7109e0000008383866001015461184a9190611a4b565b6118549190611a4b565b61185e9190611a62565b9050808460040160008282546118749190611a84565b9091555050426005909401939093555050505050565b600080602060008451602086016000885af1806118ad576040513d6000823e3d81fd5b50506000513d915081156118c55780600114156118d2565b6001600160a01b0384163b155b1561170057604051635274afe760e01b81526001600160a01b0385166004820152602401610684565b80356001600160a01b038116811461191257600080fd5b919050565b6000806040838503121561192a57600080fd5b611933836118fb565b946020939093013593505050565b60006020828403121561195357600080fd5b61195c826118fb565b9392505050565b60006020828403121561197557600080fd5b5035919050565b602080825282518282018190526000919060409081850190868401855b828110156119f0578151805185528681015187860152858101516001600160a01b031686860152606080820151908601526080808201519086015260a0908101519085015260c09093019290850190600101611999565b5091979650505050505050565b60008060408385031215611a1057600080fd5b50508035926020909101359150565b634e487b7160e01b600052603260045260246000fd5b634e487b7160e01b600052601160045260246000fd5b80820281158282048414176105d3576105d3611a35565b600082611a7f57634e487b7160e01b600052601260045260246000fd5b500490565b808201808211156105d3576105d3611a35565b600060208284031215611aa957600080fd5b5051919050565b818103818111156105d3576105d3611a3556fea2646970667358221220c1f5c64c7c7a79a4ce84046a04c4a4f16ababe7373acefe0317ce7d3c0be811a64736f6c63430008180033","opcodes":"PUSH1 0xA0 PUSH1 0x40 MSTORE CALLVALUE DUP1 ISZERO PUSH3 0x11 JUMPI PUSH1 0x0 DUP1 REVERT JUMPDEST POP PUSH1 0x40 MLOAD PUSH3 0x1C90 CODESIZE SUB DUP1 PUSH3 0x1C90 DUP4 CODECOPY DUP2 ADD PUSH1 0x40 DUP2 SWAP1 MSTORE PUSH3 0x34 SWAP2 PUSH3 0x126 JUMP JUMPDEST CALLER DUP1 PUSH3 0x5C JUMPI PUSH1 0x40 MLOAD PUSH4 0x1E4FBDF7 PUSH1 0xE0 SHL DUP2 MSTORE PUSH1 0x0 PUSH1 0x4 DUP3 ADD MSTORE PUSH1 0x24 ADD JUMPDEST PUSH1 0x40 MLOAD DUP1 SWAP2 SUB SWAP1 REVERT JUMPDEST PUSH3 0x67 DUP2 PUSH3 0xD6 JUMP JUMPDEST POP PUSH1 0x1 DUP1 SSTORE PUSH1 0x1 PUSH1 0x1 PUSH1 0xA0 SHL SUB DUP2 AND PUSH3 0xC4 JUMPI PUSH1 0x40 MLOAD PUSH3 0x461BCD PUSH1 0xE5 SHL DUP2 MSTORE PUSH1 0x20 PUSH1 0x4 DUP3 ADD MSTORE PUSH1 0x18 PUSH1 0x24 DUP3 ADD MSTORE PUSH32 0x496E76616C696420636F6C6C61746572616C20746F6B656E0000000000000000 PUSH1 0x44 DUP3 ADD MSTORE PUSH1 0x64 ADD PUSH3 0x53 JUMP JUMPDEST PUSH1 0x1 PUSH1 0x1 PUSH1 0xA0 SHL SUB AND PUSH1 0x80 MSTORE PUSH3 0x158 JUMP JUMPDEST PUSH1 0x0 DUP1 SLOAD PUSH1 0x1 PUSH1 0x1 PUSH1 0xA0 SHL SUB DUP4 DUP2 AND PUSH1 0x1 PUSH1 0x1 PUSH1 0xA0 SHL SUB NOT DUP4 AND DUP2 OR DUP5 SSTORE PUSH1 0x40 MLOAD SWAP2 SWAP1 SWAP3 AND SWAP3 DUP4 SWAP2 PUSH32 0x8BE0079C531659141344CD1FD0A4F28419497F9722A3DAAFE3B4186F6B6457E0 SWAP2 SWAP1 LOG3 POP POP JUMP JUMPDEST PUSH1 0x0 PUSH1 0x20 DUP3 DUP5 SUB SLT ISZERO PUSH3 0x139 JUMPI PUSH1 0x0 DUP1 REVERT JUMPDEST DUP2 MLOAD PUSH1 0x1 PUSH1 0x1 PUSH1 0xA0 SHL SUB DUP2 AND DUP2 EQ PUSH3 0x151 JUMPI PUSH1 0x0 DUP1 REVERT JUMPDEST SWAP4 SWAP3 POP POP POP JUMP JUMPDEST PUSH1 0x80 MLOAD PUSH2 0x1AF9 PUSH3 0x197 PUSH1 0x0 CODECOPY PUSH1 0x0 DUP2 DUP2 PUSH2 0x3F6 ADD MSTORE DUP2 DUP2 PUSH2 0x6BA ADD MSTORE DUP2 DUP2 PUSH2 0x7BA ADD MSTORE DUP2 DUP2 PUSH2 0x93B ADD MSTORE DUP2 DUP2 PUSH2 0x1045 ADD MSTORE PUSH2 0x108B ADD MSTORE PUSH2 0x1AF9 PUSH1 0x0 RETURN INVALID PUSH1 0x80 PUSH1 0x40 MSTORE CALLVALUE DUP1 ISZERO PUSH2 0x10 JUMPI PUSH1 0x0 DUP1 REVERT JUMPDEST POP PUSH1 0x4 CALLDATASIZE LT PUSH2 0x1E5 JUMPI PUSH1 0x0 CALLDATALOAD PUSH1 0xE0 SHR DUP1 PUSH4 0x6C321C8A GT PUSH2 0x10F JUMPI DUP1 PUSH4 0xB2016BD4 GT PUSH2 0xA2 JUMPI DUP1 PUSH4 0xCF762DFA GT PUSH2 0x71 JUMPI DUP1 PUSH4 0xCF762DFA EQ PUSH2 0x466 JUMPI DUP1 PUSH4 0xD8AED145 EQ PUSH2 0x46E JUMPI DUP1 PUSH4 0xF2FDE38B EQ PUSH2 0x481 JUMPI DUP1 PUSH4 0xFAC09E87 EQ PUSH2 0x494 JUMPI PUSH1 0x0 DUP1 REVERT JUMPDEST DUP1 PUSH4 0xB2016BD4 EQ PUSH2 0x3F1 JUMPI DUP1 PUSH4 0xBCBAF487 EQ PUSH2 0x418 JUMPI DUP1 PUSH4 0xBD81579E EQ PUSH2 0x42B JUMPI DUP1 PUSH4 0xCABCA643 EQ PUSH2 0x45E JUMPI PUSH1 0x0 DUP1 REVERT JUMPDEST DUP1 PUSH4 0x90A8AE9B GT PUSH2 0xDE JUMPI DUP1 PUSH4 0x90A8AE9B EQ PUSH2 0x3B9 JUMPI DUP1 PUSH4 0x93BCE638 EQ PUSH2 0x3C1 JUMPI DUP1 PUSH4 0x9B8621D5 EQ PUSH2 0x3E1 JUMPI DUP1 PUSH4 0xAAF5EB68 EQ PUSH2 0x3E9 JUMPI PUSH1 0x0 DUP1 REVERT JUMPDEST DUP1 PUSH4 0x6C321C8A EQ PUSH2 0x371 JUMPI DUP1 PUSH4 0x715018A6 EQ PUSH2 0x379 JUMPI DUP1 PUSH4 0x84212635 EQ PUSH2 0x381 JUMPI DUP1 PUSH4 0x8DA5CB5B EQ PUSH2 0x394 JUMPI PUSH1 0x0 DUP1 REVERT JUMPDEST DUP1 PUSH4 0x397EF642 GT PUSH2 0x187 JUMPI DUP1 PUSH4 0x4B8A3529 GT PUSH2 0x156 JUMPI DUP1 PUSH4 0x4B8A3529 EQ PUSH2 0x345 JUMPI DUP1 PUSH4 0x5696B189 EQ PUSH2 0x358 JUMPI DUP1 PUSH4 0x5733D948 EQ PUSH2 0x360 JUMPI DUP1 PUSH4 0x630FD0AC EQ PUSH2 0x368 JUMPI PUSH1 0x0 DUP1 REVERT JUMPDEST DUP1 PUSH4 0x397EF642 EQ PUSH2 0x2D1 JUMPI DUP1 PUSH4 0x3D4E3DA8 EQ PUSH2 0x31F JUMPI DUP1 PUSH4 0x41910F90 EQ PUSH2 0x32E JUMPI DUP1 PUSH4 0x4AC8EB5F EQ PUSH2 0x33C JUMPI PUSH1 0x0 DUP1 REVERT JUMPDEST DUP1 PUSH4 0x274CEE31 GT PUSH2 0x1C3 JUMPI DUP1 PUSH4 0x274CEE31 EQ PUSH2 0x234 JUMPI DUP1 PUSH4 0x2E1A7D4D EQ PUSH2 0x28B JUMPI DUP1 PUSH4 0x338A1996 EQ PUSH2 0x29E JUMPI DUP1 PUSH4 0x35403023 EQ PUSH2 0x2BE JUMPI PUSH1 0x0 DUP1 REVERT JUMPDEST DUP1 PUSH4 0xD408512 EQ PUSH2 0x1EA JUMPI DUP1 PUSH4 0x1C46BC6F EQ PUSH2 0x210 JUMPI DUP1 PUSH4 0x211ECBCB EQ PUSH2 0x225 JUMPI JUMPDEST PUSH1 0x0 DUP1 REVERT JUMPDEST PUSH2 0x1FD PUSH2 0x1F8 CALLDATASIZE PUSH1 0x4 PUSH2 0x1917 JUMP JUMPDEST PUSH2 0x4A7 JUMP JUMPDEST PUSH1 0x40 MLOAD SWAP1 DUP2 MSTORE PUSH1 0x20 ADD JUMPDEST PUSH1 0x40 MLOAD DUP1 SWAP2 SUB SWAP1 RETURN JUMPDEST PUSH2 0x223 PUSH2 0x21E CALLDATASIZE PUSH1 0x4 PUSH2 0x1941 JUMP JUMPDEST PUSH2 0x5D9 JUMP JUMPDEST STOP JUMPDEST PUSH2 0x1FD PUSH8 0x11C37937E080000 DUP2 JUMP JUMPDEST PUSH2 0x26B PUSH2 0x242 CALLDATASIZE PUSH1 0x4 PUSH2 0x1941 JUMP JUMPDEST PUSH1 0x2 PUSH1 0x20 DUP2 SWAP1 MSTORE PUSH1 0x0 SWAP2 DUP3 MSTORE PUSH1 0x40 SWAP1 SWAP2 KECCAK256 DUP1 SLOAD PUSH1 0x1 DUP3 ADD SLOAD SWAP3 DUP3 ADD SLOAD PUSH1 0x3 SWAP1 SWAP3 ADD SLOAD SWAP1 SWAP3 SWAP2 SWAP1 DUP5 JUMP JUMPDEST PUSH1 0x40 DUP1 MLOAD SWAP5 DUP6 MSTORE PUSH1 0x20 DUP6 ADD SWAP4 SWAP1 SWAP4 MSTORE SWAP2 DUP4 ADD MSTORE PUSH1 0x60 DUP3 ADD MSTORE PUSH1 0x80 ADD PUSH2 0x207 JUMP JUMPDEST PUSH2 0x223 PUSH2 0x299 CALLDATASIZE PUSH1 0x4 PUSH2 0x1963 JUMP JUMPDEST PUSH2 0x62A JUMP JUMPDEST PUSH2 0x2B1 PUSH2 0x2AC CALLDATASIZE PUSH1 0x4 PUSH2 0x1941 JUMP JUMPDEST PUSH2 0x824 JUMP JUMPDEST PUSH1 0x40 MLOAD PUSH2 0x207 SWAP2 SWAP1 PUSH2 0x197C JUMP JUMPDEST PUSH2 0x223 PUSH2 0x2CC CALLDATASIZE PUSH1 0x4 PUSH2 0x1963 JUMP JUMPDEST PUSH2 0x8D8 JUMP JUMPDEST PUSH2 0x2E4 PUSH2 0x2DF CALLDATASIZE PUSH1 0x4 PUSH2 0x1917 JUMP JUMPDEST PUSH2 0x9F1 JUMP JUMPDEST PUSH1 0x40 DUP1 MLOAD SWAP7 DUP8 MSTORE PUSH1 0x20 DUP8 ADD SWAP6 SWAP1 SWAP6 MSTORE PUSH1 0x1 PUSH1 0x1 PUSH1 0xA0 SHL SUB SWAP1 SWAP4 AND SWAP4 DUP6 ADD SWAP4 SWAP1 SWAP4 MSTORE PUSH1 0x60 DUP5 ADD MSTORE PUSH1 0x80 DUP4 ADD SWAP2 SWAP1 SWAP2 MSTORE PUSH1 0xA0 DUP3 ADD MSTORE PUSH1 0xC0 ADD PUSH2 0x207 JUMP JUMPDEST PUSH2 0x1FD PUSH8 0x58D15E176280000 DUP2 JUMP JUMPDEST PUSH2 0x1FD PUSH7 0x470DE4DF820000 DUP2 JUMP JUMPDEST PUSH2 0x1FD PUSH1 0x7 SLOAD DUP2 JUMP JUMPDEST PUSH2 0x223 PUSH2 0x353 CALLDATASIZE PUSH1 0x4 PUSH2 0x1917 JUMP JUMPDEST PUSH2 0xA4E JUMP JUMPDEST PUSH2 0x1FD PUSH1 0x42 DUP2 JUMP JUMPDEST PUSH2 0x1FD PUSH2 0xD35 JUMP JUMPDEST PUSH2 0x1FD PUSH1 0x6 SLOAD DUP2 JUMP JUMPDEST PUSH2 0x1FD PUSH2 0xD6B JUMP JUMPDEST PUSH2 0x223 PUSH2 0xDA8 JUMP JUMPDEST PUSH2 0x1FD PUSH2 0x38F CALLDATASIZE PUSH1 0x4 PUSH2 0x1941 JUMP JUMPDEST PUSH2 0xDBC JUMP JUMPDEST PUSH1 0x0 SLOAD PUSH1 0x1 PUSH1 0x1 PUSH1 0xA0 SHL SUB AND JUMPDEST PUSH1 0x40 MLOAD PUSH1 0x1 PUSH1 0x1 PUSH1 0xA0 SHL SUB SWAP1 SWAP2 AND DUP2 MSTORE PUSH1 0x20 ADD PUSH2 0x207 JUMP JUMPDEST PUSH2 0x1FD PUSH1 0x4B DUP2 JUMP JUMPDEST PUSH2 0x1FD PUSH2 0x3CF CALLDATASIZE PUSH1 0x4 PUSH2 0x1941 JUMP JUMPDEST PUSH1 0x5 PUSH1 0x20 MSTORE PUSH1 0x0 SWAP1 DUP2 MSTORE PUSH1 0x40 SWAP1 KECCAK256 SLOAD DUP2 JUMP JUMPDEST PUSH2 0x1FD PUSH1 0xA DUP2 JUMP JUMPDEST PUSH2 0x1FD PUSH1 0x64 DUP2 JUMP JUMPDEST PUSH2 0x3A1 PUSH32 0x0 DUP2 JUMP JUMPDEST PUSH2 0x223 PUSH2 0x426 CALLDATASIZE PUSH1 0x4 PUSH2 0x1917 JUMP JUMPDEST PUSH2 0xE8A JUMP JUMPDEST PUSH2 0x44E PUSH2 0x439 CALLDATASIZE PUSH1 0x4 PUSH2 0x1941 JUMP JUMPDEST PUSH1 0x4 PUSH1 0x20 MSTORE PUSH1 0x0 SWAP1 DUP2 MSTORE PUSH1 0x40 SWAP1 KECCAK256 SLOAD PUSH1 0xFF AND DUP2 JUMP JUMPDEST PUSH1 0x40 MLOAD SWAP1 ISZERO ISZERO DUP2 MSTORE PUSH1 0x20 ADD PUSH2 0x207 JUMP JUMPDEST PUSH2 0x1FD PUSH2 0x115A JUMP JUMPDEST PUSH2 0x1FD PUSH1 0x50 DUP2 JUMP JUMPDEST PUSH2 0x223 PUSH2 0x47C CALLDATASIZE PUSH1 0x4 PUSH2 0x19FD JUMP JUMPDEST PUSH2 0x11F8 JUMP JUMPDEST PUSH2 0x223 PUSH2 0x48F CALLDATASIZE PUSH1 0x4 PUSH2 0x1941 JUMP JUMPDEST PUSH2 0x1494 JUMP JUMPDEST PUSH2 0x223 PUSH2 0x4A2 CALLDATASIZE PUSH1 0x4 PUSH2 0x1941 JUMP JUMPDEST PUSH2 0x14CF JUMP JUMPDEST PUSH1 0x1 PUSH1 0x1 PUSH1 0xA0 SHL SUB DUP3 AND PUSH1 0x0 SWAP1 DUP2 MSTORE PUSH1 0x3 PUSH1 0x20 MSTORE PUSH1 0x40 DUP2 KECCAK256 SLOAD DUP3 LT PUSH2 0x4CE JUMPI POP PUSH1 0x0 PUSH2 0x5D3 JUMP JUMPDEST PUSH1 0x1 PUSH1 0x1 PUSH1 0xA0 SHL SUB DUP4 AND PUSH1 0x0 SWAP1 DUP2 MSTORE PUSH1 0x3 PUSH1 0x20 MSTORE PUSH1 0x40 DUP2 KECCAK256 DUP1 SLOAD DUP5 SWAP1 DUP2 LT PUSH2 0x4F8 JUMPI PUSH2 0x4F8 PUSH2 0x1A1F JUMP JUMPDEST PUSH1 0x0 SWAP2 DUP3 MSTORE PUSH1 0x20 DUP1 DUP4 KECCAK256 PUSH1 0x40 DUP1 MLOAD PUSH1 0xC0 DUP2 ADD DUP3 MSTORE PUSH1 0x6 SWAP1 SWAP5 MUL SWAP1 SWAP2 ADD DUP1 SLOAD DUP5 MSTORE PUSH1 0x1 DUP2 ADD SLOAD SWAP3 DUP5 ADD DUP4 SWAP1 MSTORE PUSH1 0x2 DUP2 ADD SLOAD PUSH1 0x1 PUSH1 0x1 PUSH1 0xA0 SHL SUB AND SWAP2 DUP5 ADD SWAP2 SWAP1 SWAP2 MSTORE PUSH1 0x3 DUP2 ADD SLOAD PUSH1 0x60 DUP5 ADD MSTORE PUSH1 0x4 DUP2 ADD SLOAD PUSH1 0x80 DUP5 ADD MSTORE PUSH1 0x5 ADD SLOAD PUSH1 0xA0 DUP4 ADD MSTORE SWAP1 SWAP3 POP SWAP1 SUB PUSH2 0x569 JUMPI PUSH1 0x0 NOT SWAP2 POP POP PUSH2 0x5D3 JUMP JUMPDEST PUSH1 0x0 PUSH1 0x64 PUSH1 0x4B DUP4 PUSH1 0x0 ADD MLOAD PUSH2 0x57E SWAP2 SWAP1 PUSH2 0x1A4B JUMP JUMPDEST PUSH2 0x588 SWAP2 SWAP1 PUSH2 0x1A62 JUMP JUMPDEST SWAP1 POP PUSH1 0x0 DUP3 PUSH1 0x80 ADD MLOAD DUP4 PUSH1 0x20 ADD MLOAD PUSH2 0x5A0 SWAP2 SWAP1 PUSH2 0x1A84 JUMP JUMPDEST SWAP1 POP DUP1 PUSH1 0x0 SUB PUSH2 0x5B7 JUMPI PUSH1 0x0 NOT SWAP4 POP POP POP POP PUSH2 0x5D3 JUMP JUMPDEST DUP1 PUSH2 0x5C3 PUSH1 0x64 DUP5 PUSH2 0x1A4B JUMP JUMPDEST PUSH2 0x5CD SWAP2 SWAP1 PUSH2 0x1A62 JUMP JUMPDEST SWAP4 POP POP POP POP JUMPDEST SWAP3 SWAP2 POP POP JUMP JUMPDEST PUSH2 0x5E1 PUSH2 0x1569 JUMP JUMPDEST PUSH1 0x1 PUSH1 0x1 PUSH1 0xA0 SHL SUB DUP2 AND PUSH1 0x0 DUP2 DUP2 MSTORE PUSH1 0x4 PUSH1 0x20 MSTORE PUSH1 0x40 DUP1 DUP3 KECCAK256 DUP1 SLOAD PUSH1 0xFF NOT AND SWAP1 SSTORE MLOAD PUSH32 0x37803E2125C48EE96C38DDF04E826DAF335B0E1603579040FD275ABA6D06B6FC SWAP2 SWAP1 LOG2 POP JUMP JUMPDEST PUSH2 0x632 PUSH2 0x1596 JUMP JUMPDEST CALLER PUSH1 0x0 SWAP1 DUP2 MSTORE PUSH1 0x2 PUSH1 0x20 MSTORE PUSH1 0x40 SWAP1 KECCAK256 DUP1 SLOAD DUP3 GT ISZERO PUSH2 0x68D JUMPI PUSH1 0x40 MLOAD PUSH3 0x461BCD PUSH1 0xE5 SHL DUP2 MSTORE PUSH1 0x20 PUSH1 0x4 DUP3 ADD MSTORE PUSH1 0x13 PUSH1 0x24 DUP3 ADD MSTORE PUSH19 0x496E73756666696369656E7420737570706C79 PUSH1 0x68 SHL PUSH1 0x44 DUP3 ADD MSTORE PUSH1 0x64 ADD JUMPDEST PUSH1 0x40 MLOAD DUP1 SWAP2 SUB SWAP1 REVERT JUMPDEST PUSH2 0x696 CALLER PUSH2 0x15C0 JUMP JUMPDEST PUSH1 0x7 SLOAD PUSH1 0x40 MLOAD PUSH4 0x70A08231 PUSH1 0xE0 SHL DUP2 MSTORE ADDRESS PUSH1 0x4 DUP3 ADD MSTORE PUSH1 0x0 SWAP2 SWAP1 PUSH1 0x1 PUSH1 0x1 PUSH1 0xA0 SHL SUB PUSH32 0x0 AND SWAP1 PUSH4 0x70A08231 SWAP1 PUSH1 0x24 ADD PUSH1 0x20 PUSH1 0x40 MLOAD DUP1 DUP4 SUB DUP2 DUP7 GAS STATICCALL ISZERO DUP1 ISZERO PUSH2 0x701 JUMPI RETURNDATASIZE PUSH1 0x0 DUP1 RETURNDATACOPY RETURNDATASIZE PUSH1 0x0 REVERT JUMPDEST POP POP POP POP PUSH1 0x40 MLOAD RETURNDATASIZE PUSH1 0x1F NOT PUSH1 0x1F DUP3 ADD AND DUP3 ADD DUP1 PUSH1 0x40 MSTORE POP DUP2 ADD SWAP1 PUSH2 0x725 SWAP2 SWAP1 PUSH2 0x1A97 JUMP JUMPDEST PUSH2 0x72F SWAP2 SWAP1 PUSH2 0x1AB0 JUMP JUMPDEST SWAP1 POP DUP3 DUP2 LT ISZERO PUSH2 0x77A JUMPI PUSH1 0x40 MLOAD PUSH3 0x461BCD PUSH1 0xE5 SHL DUP2 MSTORE PUSH1 0x20 PUSH1 0x4 DUP3 ADD MSTORE PUSH1 0x16 PUSH1 0x24 DUP3 ADD MSTORE PUSH22 0x496E73756666696369656E74206C6971756964697479 PUSH1 0x50 SHL PUSH1 0x44 DUP3 ADD MSTORE PUSH1 0x64 ADD PUSH2 0x684 JUMP JUMPDEST DUP3 DUP3 PUSH1 0x0 ADD PUSH1 0x0 DUP3 DUP3 SLOAD PUSH2 0x78E SWAP2 SWAP1 PUSH2 0x1AB0 JUMP JUMPDEST SWAP3 POP POP DUP2 SWAP1 SSTORE POP DUP3 PUSH1 0x6 PUSH1 0x0 DUP3 DUP3 SLOAD PUSH2 0x7A7 SWAP2 SWAP1 PUSH2 0x1AB0 JUMP JUMPDEST SWAP1 SWAP2 SSTORE POP PUSH2 0x7E1 SWAP1 POP PUSH1 0x1 PUSH1 0x1 PUSH1 0xA0 SHL SUB PUSH32 0x0 AND CALLER DUP6 PUSH2 0x1663 JUMP JUMPDEST PUSH1 0x40 MLOAD DUP4 DUP2 MSTORE CALLER SWAP1 PUSH32 0x7084F5476618D8E60B11EF0D7D3F06914655ADB8793E28FF7F018D4C76D505D5 SWAP1 PUSH1 0x20 ADD PUSH1 0x40 MLOAD DUP1 SWAP2 SUB SWAP1 LOG2 POP POP PUSH2 0x821 PUSH1 0x1 DUP1 SSTORE JUMP JUMPDEST POP JUMP JUMPDEST PUSH1 0x1 PUSH1 0x1 PUSH1 0xA0 SHL SUB DUP2 AND PUSH1 0x0 SWAP1 DUP2 MSTORE PUSH1 0x3 PUSH1 0x20 SWAP1 DUP2 MSTORE PUSH1 0x40 DUP1 DUP4 KECCAK256 DUP1 SLOAD DUP3 MLOAD DUP2 DUP6 MUL DUP2 ADD DUP6 ADD SWAP1 SWAP4 MSTORE DUP1 DUP4 MSTORE PUSH1 0x60 SWAP5 SWAP3 SWAP4 SWAP2 SWAP3 SWAP1 SWAP2 DUP5 ADD JUMPDEST DUP3 DUP3 LT ISZERO PUSH2 0x8CD JUMPI PUSH1 0x0 DUP5 DUP2 MSTORE PUSH1 0x20 SWAP1 DUP2 SWAP1 KECCAK256 PUSH1 0x40 DUP1 MLOAD PUSH1 0xC0 DUP2 ADD DUP3 MSTORE PUSH1 0x6 DUP7 MUL SWAP1 SWAP3 ADD DUP1 SLOAD DUP4 MSTORE PUSH1 0x1 DUP1 DUP3 ADD SLOAD DUP5 DUP7 ADD MSTORE PUSH1 0x2 DUP3 ADD SLOAD PUSH1 0x1 PUSH1 0x1 PUSH1 0xA0 SHL SUB AND SWAP3 DUP5 ADD SWAP3 SWAP1 SWAP3 MSTORE PUSH1 0x3 DUP2 ADD SLOAD PUSH1 0x60 DUP5 ADD MSTORE PUSH1 0x4 DUP2 ADD SLOAD PUSH1 0x80 DUP5 ADD MSTORE PUSH1 0x5 ADD SLOAD PUSH1 0xA0 DUP4 ADD MSTORE SWAP1 DUP4 MSTORE SWAP1 SWAP3 ADD SWAP2 ADD PUSH2 0x85C JUMP JUMPDEST POP POP POP POP SWAP1 POP SWAP2 SWAP1 POP JUMP JUMPDEST PUSH2 0x8E0 PUSH2 0x1596 JUMP JUMPDEST PUSH1 0x0 DUP2 GT PUSH2 0x925 JUMPI PUSH1 0x40 MLOAD PUSH3 0x461BCD PUSH1 0xE5 SHL DUP2 MSTORE PUSH1 0x20 PUSH1 0x4 DUP3 ADD MSTORE PUSH1 0x12 PUSH1 0x24 DUP3 ADD MSTORE PUSH18 0x416D6F756E74206D757374206265203E203 PUSH1 0x74 SHL PUSH1 0x44 DUP3 ADD MSTORE PUSH1 0x64 ADD PUSH2 0x684 JUMP JUMPDEST PUSH2 0x92E CALLER PUSH2 0x15C0 JUMP JUMPDEST PUSH2 0x963 PUSH1 0x1 PUSH1 0x1 PUSH1 0xA0 SHL SUB PUSH32 0x0 AND CALLER ADDRESS DUP5 PUSH2 0x16C7 JUMP JUMPDEST CALLER PUSH1 0x0 SWAP1 DUP2 MSTORE PUSH1 0x2 PUSH1 0x20 MSTORE PUSH1 0x40 DUP2 KECCAK256 DUP1 SLOAD SWAP1 SWAP2 DUP4 SWAP2 DUP4 SWAP2 SWAP1 PUSH2 0x986 SWAP1 DUP5 SWAP1 PUSH2 0x1A84 JUMP JUMPDEST SWAP1 SWAP2 SSTORE POP POP TIMESTAMP PUSH1 0x1 DUP3 ADD DUP2 SWAP1 SSTORE PUSH1 0x3 DUP3 ADD SSTORE PUSH1 0x6 DUP1 SLOAD DUP4 SWAP2 SWAP1 PUSH1 0x0 SWAP1 PUSH2 0x9AD SWAP1 DUP5 SWAP1 PUSH2 0x1A84 JUMP JUMPDEST SWAP1 SWAP2 SSTORE POP POP PUSH1 0x40 MLOAD DUP3 DUP2 MSTORE CALLER SWAP1 PUSH32 0x6473C9F7DA8F23A3D810F05B3E8FB3945F0AD17DEADCC09E302CDF5D58E48FE7 SWAP1 PUSH1 0x20 ADD PUSH1 0x40 MLOAD DUP1 SWAP2 SUB SWAP1 LOG2 POP PUSH2 0x821 PUSH1 0x1 DUP1 SSTORE JUMP JUMPDEST PUSH1 0x3 PUSH1 0x20 MSTORE DUP2 PUSH1 0x0 MSTORE PUSH1 0x40 PUSH1 0x0 KECCAK256 DUP2 DUP2 SLOAD DUP2 LT PUSH2 0xA0D JUMPI PUSH1 0x0 DUP1 REVERT JUMPDEST PUSH1 0x0 SWAP2 DUP3 MSTORE PUSH1 0x20 SWAP1 SWAP2 KECCAK256 PUSH1 0x6 SWAP1 SWAP2 MUL ADD DUP1 SLOAD PUSH1 0x1 DUP3 ADD SLOAD PUSH1 0x2 DUP4 ADD SLOAD PUSH1 0x3 DUP5 ADD SLOAD PUSH1 0x4 DUP6 ADD SLOAD PUSH1 0x5 SWAP1 SWAP6 ADD SLOAD SWAP4 SWAP7 POP SWAP2 SWAP5 POP PUSH1 0x1 PUSH1 0x1 PUSH1 0xA0 SHL SUB AND SWAP3 SWAP1 SWAP2 DUP7 JUMP JUMPDEST PUSH2 0xA56 PUSH2 0x1596 JUMP JUMPDEST PUSH1 0x1 PUSH1 0x1 PUSH1 0xA0 SHL SUB DUP3 AND PUSH1 0x0 SWAP1 DUP2 MSTORE PUSH1 0x4 PUSH1 0x20 MSTORE PUSH1 0x40 SWAP1 KECCAK256 SLOAD PUSH1 0xFF AND PUSH2 0xAB4 JUMPI PUSH1 0x40 MLOAD PUSH3 0x461BCD PUSH1 0xE5 SHL DUP2 MSTORE PUSH1 0x20 PUSH1 0x4 DUP3 ADD MSTORE PUSH1 0x13 PUSH1 0x24 DUP3 ADD MSTORE PUSH19 0x105CDCD95D081B9BDD081CDD5C1C1BDC9D1959 PUSH1 0x6A SHL PUSH1 0x44 DUP3 ADD MSTORE PUSH1 0x64 ADD PUSH2 0x684 JUMP JUMPDEST PUSH1 0x0 DUP2 GT PUSH2 0xAF9 JUMPI PUSH1 0x40 MLOAD PUSH3 0x461BCD PUSH1 0xE5 SHL DUP2 MSTORE PUSH1 0x20 PUSH1 0x4 DUP3 ADD MSTORE PUSH1 0x12 PUSH1 0x24 DUP3 ADD MSTORE PUSH18 0x416D6F756E74206D757374206265203E203 PUSH1 0x74 SHL PUSH1 0x44 DUP3 ADD MSTORE PUSH1 0x64 ADD PUSH2 0x684 JUMP JUMPDEST CALLER PUSH1 0x0 SWAP1 DUP2 MSTORE PUSH1 0x2 PUSH1 0x20 MSTORE PUSH1 0x40 SWAP1 KECCAK256 DUP1 SLOAD PUSH2 0xB4F JUMPI PUSH1 0x40 MLOAD PUSH3 0x461BCD PUSH1 0xE5 SHL DUP2 MSTORE PUSH1 0x20 PUSH1 0x4 DUP3 ADD MSTORE PUSH1 0x16 PUSH1 0x24 DUP3 ADD MSTORE PUSH22 0x139BC818DBDB1B185D195C985B081CDD5C1C1B1A5959 PUSH1 0x52 SHL PUSH1 0x44 DUP3 ADD MSTORE PUSH1 0x64 ADD PUSH2 0x684 JUMP JUMPDEST PUSH1 0x0 PUSH1 0x64 PUSH1 0x42 DUP4 PUSH1 0x0 ADD SLOAD PUSH2 0xB64 SWAP2 SWAP1 PUSH2 0x1A4B JUMP JUMPDEST PUSH2 0xB6E SWAP2 SWAP1 PUSH2 0x1A62 JUMP JUMPDEST SWAP1 POP PUSH1 0x0 PUSH2 0xB7B CALLER PUSH2 0xDBC JUMP JUMPDEST SWAP1 POP DUP2 PUSH2 0xB88 DUP6 DUP4 PUSH2 0x1A84 JUMP JUMPDEST GT ISZERO PUSH2 0xBD6 JUMPI PUSH1 0x40 MLOAD PUSH3 0x461BCD PUSH1 0xE5 SHL DUP2 MSTORE PUSH1 0x20 PUSH1 0x4 DUP3 ADD MSTORE PUSH1 0x17 PUSH1 0x24 DUP3 ADD MSTORE PUSH32 0x4578636565647320626F72726F77206361706163697479000000000000000000 PUSH1 0x44 DUP3 ADD MSTORE PUSH1 0x64 ADD PUSH2 0x684 JUMP JUMPDEST CALLER PUSH1 0x0 SWAP1 DUP2 MSTORE PUSH1 0x3 PUSH1 0x20 DUP2 DUP2 MSTORE PUSH1 0x40 DUP1 DUP5 KECCAK256 DUP2 MLOAD PUSH1 0xC0 DUP2 ADD DUP4 MSTORE DUP9 SLOAD DUP2 MSTORE DUP1 DUP5 ADD DUP11 DUP2 MSTORE PUSH1 0x1 PUSH1 0x1 PUSH1 0xA0 SHL SUB DUP13 DUP2 AND DUP4 DUP7 ADD DUP2 DUP2 MSTORE TIMESTAMP PUSH1 0x60 DUP7 ADD DUP2 DUP2 MSTORE PUSH1 0x80 DUP8 ADD DUP13 DUP2 MSTORE PUSH1 0xA0 DUP9 ADD SWAP3 DUP4 MSTORE DUP9 SLOAD PUSH1 0x1 DUP1 DUP3 ADD DUP12 SSTORE SWAP10 DUP15 MSTORE DUP12 DUP15 KECCAK256 SWAP9 MLOAD PUSH1 0x6 SWAP1 SWAP2 MUL SWAP1 SWAP9 ADD SWAP8 DUP9 SSTORE SWAP6 MLOAD SWAP8 DUP8 ADD SWAP8 SWAP1 SWAP8 SSTORE SWAP1 MLOAD PUSH1 0x2 DUP7 ADD DUP1 SLOAD PUSH1 0x1 PUSH1 0x1 PUSH1 0xA0 SHL SUB NOT AND SWAP2 SWAP1 SWAP5 AND OR SWAP1 SWAP3 SSTORE SWAP4 MLOAD SWAP7 DUP4 ADD SWAP7 SWAP1 SWAP7 SSTORE MLOAD PUSH1 0x4 DUP3 ADD SSTORE SWAP4 MLOAD PUSH1 0x5 SWAP5 DUP6 ADD SSTORE DUP5 MSTORE SWAP2 SWAP1 MSTORE DUP2 KECCAK256 DUP1 SLOAD DUP7 SWAP3 SWAP1 PUSH2 0xC8E SWAP1 DUP5 SWAP1 PUSH2 0x1A84 JUMP JUMPDEST SWAP1 SWAP2 SSTORE POP POP DUP3 SLOAD PUSH1 0x7 DUP1 SLOAD PUSH1 0x0 SWAP1 PUSH2 0xCA7 SWAP1 DUP5 SWAP1 PUSH2 0x1A84 JUMP JUMPDEST SWAP1 SWAP2 SSTORE POP PUSH2 0xCC1 SWAP1 POP PUSH1 0x1 PUSH1 0x1 PUSH1 0xA0 SHL SUB DUP7 AND CALLER DUP7 PUSH2 0x1663 JUMP JUMPDEST CALLER PUSH1 0x0 DUP2 DUP2 MSTORE PUSH1 0x3 PUSH1 0x20 MSTORE PUSH1 0x40 SWAP1 KECCAK256 SLOAD PUSH1 0x1 PUSH1 0x1 PUSH1 0xA0 SHL SUB DUP8 AND SWAP2 SWAP1 PUSH32 0xC14E9E6B4D98A542B05A0F6B64ACD5F4CBDB914BE88432D87486B664E97071A7 SWAP1 DUP8 SWAP1 PUSH2 0xD0D SWAP1 PUSH1 0x1 SWAP1 PUSH2 0x1AB0 JUMP JUMPDEST PUSH1 0x40 DUP1 MLOAD SWAP3 DUP4 MSTORE PUSH1 0x20 DUP4 ADD SWAP2 SWAP1 SWAP2 MSTORE ADD PUSH1 0x40 MLOAD DUP1 SWAP2 SUB SWAP1 LOG3 POP POP POP PUSH2 0xD31 PUSH1 0x1 DUP1 SSTORE JUMP JUMPDEST POP POP JUMP JUMPDEST PUSH1 0x0 DUP1 PUSH2 0xD40 PUSH2 0xD6B JUMP JUMPDEST SWAP1 POP PUSH1 0x0 PUSH2 0xD4C PUSH2 0x115A JUMP JUMPDEST SWAP1 POP PUSH1 0x64 PUSH2 0xD5A DUP4 DUP4 PUSH2 0x1A4B JUMP JUMPDEST PUSH2 0xD64 SWAP2 SWAP1 PUSH2 0x1A62 JUMP JUMPDEST SWAP3 POP POP POP SWAP1 JUMP JUMPDEST PUSH1 0x0 PUSH1 0x6 SLOAD PUSH1 0x0 SUB PUSH2 0xD7D JUMPI POP PUSH1 0x0 SWAP1 JUMP JUMPDEST PUSH1 0x0 PUSH2 0xD87 PUSH2 0x1706 JUMP JUMPDEST PUSH1 0x6 SLOAD SWAP1 SWAP2 POP PUSH2 0xD98 PUSH1 0x64 DUP4 PUSH2 0x1A4B JUMP JUMPDEST PUSH2 0xDA2 SWAP2 SWAP1 PUSH2 0x1A62 JUMP JUMPDEST SWAP2 POP POP SWAP1 JUMP JUMPDEST PUSH2 0xDB0 PUSH2 0x1569 JUMP JUMPDEST PUSH2 0xDBA PUSH1 0x0 PUSH2 0x1770 JUMP JUMPDEST JUMP JUMPDEST PUSH1 0x0 DUP1 DUP1 JUMPDEST PUSH1 0x1 PUSH1 0x1 PUSH1 0xA0 SHL SUB DUP5 AND PUSH1 0x0 SWAP1 DUP2 MSTORE PUSH1 0x3 PUSH1 0x20 MSTORE PUSH1 0x40 SWAP1 KECCAK256 SLOAD DUP2 LT ISZERO PUSH2 0xE83 JUMPI PUSH1 0x1 PUSH1 0x1 PUSH1 0xA0 SHL SUB DUP5 AND PUSH1 0x0 SWAP1 DUP2 MSTORE PUSH1 0x3 PUSH1 0x20 MSTORE PUSH1 0x40 SWAP1 KECCAK256 DUP1 SLOAD DUP3 SWAP1 DUP2 LT PUSH2 0xE0B JUMPI PUSH2 0xE0B PUSH2 0x1A1F JUMP JUMPDEST SWAP1 PUSH1 0x0 MSTORE PUSH1 0x20 PUSH1 0x0 KECCAK256 SWAP1 PUSH1 0x6 MUL ADD PUSH1 0x4 ADD SLOAD PUSH1 0x3 PUSH1 0x0 DUP7 PUSH1 0x1 PUSH1 0x1 PUSH1 0xA0 SHL SUB AND PUSH1 0x1 PUSH1 0x1 PUSH1 0xA0 SHL SUB AND DUP2 MSTORE PUSH1 0x20 ADD SWAP1 DUP2 MSTORE PUSH1 0x20 ADD PUSH1 0x0 KECCAK256 DUP3 DUP2 SLOAD DUP2 LT PUSH2 0xE53 JUMPI PUSH2 0xE53 PUSH2 0x1A1F JUMP JUMPDEST SWAP1 PUSH1 0x0 MSTORE PUSH1 0x20 PUSH1 0x0 KECCAK256 SWAP1 PUSH1 0x6 MUL ADD PUSH1 0x1 ADD SLOAD PUSH2 0xE6F SWAP2 SWAP1 PUSH2 0x1A84 JUMP JUMPDEST PUSH2 0xE79 SWAP1 DUP4 PUSH2 0x1A84 JUMP JUMPDEST SWAP2 POP PUSH1 0x1 ADD PUSH2 0xDC1 JUMP JUMPDEST POP SWAP3 SWAP2 POP POP JUMP JUMPDEST PUSH2 0xE92 PUSH2 0x1596 JUMP JUMPDEST PUSH1 0x1 PUSH1 0x1 PUSH1 0xA0 SHL SUB DUP3 AND PUSH1 0x0 SWAP1 DUP2 MSTORE PUSH1 0x3 PUSH1 0x20 MSTORE PUSH1 0x40 SWAP1 KECCAK256 SLOAD DUP2 LT PUSH2 0xEF0 JUMPI PUSH1 0x40 MLOAD PUSH3 0x461BCD PUSH1 0xE5 SHL DUP2 MSTORE PUSH1 0x20 PUSH1 0x4 DUP3 ADD MSTORE PUSH1 0x14 PUSH1 0x24 DUP3 ADD MSTORE PUSH20 0x92DCECC2D8D2C840C4DEE4E4DEEE40D2DCC8CAF PUSH1 0x63 SHL PUSH1 0x44 DUP3 ADD MSTORE PUSH1 0x64 ADD PUSH2 0x684 JUMP JUMPDEST PUSH1 0x1 PUSH1 0x1 PUSH1 0xA0 SHL SUB DUP3 AND PUSH1 0x0 SWAP1 DUP2 MSTORE PUSH1 0x3 PUSH1 0x20 MSTORE PUSH1 0x40 DUP2 KECCAK256 DUP1 SLOAD DUP4 SWAP1 DUP2 LT PUSH2 0xF1A JUMPI PUSH2 0xF1A PUSH2 0x1A1F JUMP JUMPDEST SWAP1 PUSH1 0x0 MSTORE PUSH1 0x20 PUSH1 0x0 KECCAK256 SWAP1 PUSH1 0x6 MUL ADD SWAP1 POP PUSH1 0x0 DUP2 PUSH1 0x1 ADD SLOAD GT PUSH2 0xF7E JUMPI PUSH1 0x40 MLOAD PUSH3 0x461BCD PUSH1 0xE5 SHL DUP2 MSTORE PUSH1 0x20 PUSH1 0x4 DUP3 ADD MSTORE PUSH1 0x17 PUSH1 0x24 DUP3 ADD MSTORE PUSH32 0x506F736974696F6E20616C726561647920636C6F736564000000000000000000 PUSH1 0x44 DUP3 ADD MSTORE PUSH1 0x64 ADD PUSH2 0x684 JUMP JUMPDEST PUSH2 0xF88 DUP4 DUP4 PUSH2 0x17C0 JUMP JUMPDEST PUSH1 0x0 PUSH2 0xF94 DUP5 DUP5 PUSH2 0x4A7 JUMP JUMPDEST SWAP1 POP PUSH1 0x64 DUP2 LT PUSH2 0xFDC JUMPI PUSH1 0x40 MLOAD PUSH3 0x461BCD PUSH1 0xE5 SHL DUP2 MSTORE PUSH1 0x20 PUSH1 0x4 DUP3 ADD MSTORE PUSH1 0x13 PUSH1 0x24 DUP3 ADD MSTORE PUSH19 0x506F736974696F6E206973206865616C746879 PUSH1 0x68 SHL PUSH1 0x44 DUP3 ADD MSTORE PUSH1 0x64 ADD PUSH2 0x684 JUMP JUMPDEST PUSH1 0x0 DUP3 PUSH1 0x4 ADD SLOAD DUP4 PUSH1 0x1 ADD SLOAD PUSH2 0xFF2 SWAP2 SWAP1 PUSH2 0x1A84 JUMP JUMPDEST DUP4 SLOAD SWAP1 SWAP2 POP PUSH1 0x0 PUSH1 0x64 PUSH2 0x1006 PUSH1 0xA DUP5 PUSH2 0x1A4B JUMP JUMPDEST PUSH2 0x1010 SWAP2 SWAP1 PUSH2 0x1A62 JUMP JUMPDEST PUSH1 0x2 DUP7 ADD SLOAD SWAP1 SWAP2 POP PUSH2 0x102D SWAP1 PUSH1 0x1 PUSH1 0x1 PUSH1 0xA0 SHL SUB AND CALLER ADDRESS DUP7 PUSH2 0x16C7 JUMP JUMPDEST PUSH2 0x106C CALLER PUSH2 0x103B DUP4 DUP6 PUSH2 0x1AB0 JUMP JUMPDEST PUSH1 0x1 PUSH1 0x1 PUSH1 0xA0 SHL SUB PUSH32 0x0 AND SWAP2 SWAP1 PUSH2 0x1663 JUMP JUMPDEST PUSH2 0x10B2 PUSH2 0x1081 PUSH1 0x0 SLOAD PUSH1 0x1 PUSH1 0x1 PUSH1 0xA0 SHL SUB AND SWAP1 JUMP JUMPDEST PUSH1 0x1 PUSH1 0x1 PUSH1 0xA0 SHL SUB PUSH32 0x0 AND SWAP1 DUP4 PUSH2 0x1663 JUMP JUMPDEST PUSH1 0x1 DUP6 ADD SLOAD PUSH1 0x2 DUP7 ADD SLOAD PUSH1 0x1 PUSH1 0x1 PUSH1 0xA0 SHL SUB AND PUSH1 0x0 SWAP1 DUP2 MSTORE PUSH1 0x5 PUSH1 0x20 MSTORE PUSH1 0x40 DUP2 KECCAK256 DUP1 SLOAD SWAP1 SWAP2 SWAP1 PUSH2 0x10E3 SWAP1 DUP5 SWAP1 PUSH2 0x1AB0 JUMP JUMPDEST SWAP1 SWAP2 SSTORE POP POP DUP5 SLOAD PUSH1 0x7 DUP1 SLOAD PUSH1 0x0 SWAP1 PUSH2 0x10FC SWAP1 DUP5 SWAP1 PUSH2 0x1AB0 JUMP JUMPDEST SWAP1 SWAP2 SSTORE POP POP PUSH1 0x0 PUSH1 0x1 DUP7 ADD DUP2 SWAP1 SSTORE DUP6 SSTORE PUSH1 0x40 MLOAD DUP7 DUP2 MSTORE CALLER SWAP1 PUSH1 0x1 PUSH1 0x1 PUSH1 0xA0 SHL SUB DUP10 AND SWAP1 PUSH32 0xC210DBB07F7AAB03C41EC07F0DA12DAAA276057060FDDED4AD506CE2D503595 SWAP1 PUSH1 0x20 ADD PUSH1 0x40 MLOAD DUP1 SWAP2 SUB SWAP1 LOG3 POP POP POP POP POP PUSH2 0xD31 PUSH1 0x1 DUP1 SSTORE JUMP JUMPDEST PUSH1 0x0 DUP1 PUSH2 0x1165 PUSH2 0xD6B JUMP JUMPDEST SWAP1 POP PUSH1 0x50 DUP2 GT PUSH2 0x119E JUMPI PUSH1 0x50 PUSH2 0x1183 PUSH8 0x11C37937E080000 DUP4 PUSH2 0x1A4B JUMP JUMPDEST PUSH2 0x118D SWAP2 SWAP1 PUSH2 0x1A62 JUMP JUMPDEST PUSH2 0xDA2 SWAP1 PUSH7 0x470DE4DF820000 PUSH2 0x1A84 JUMP JUMPDEST PUSH1 0x0 PUSH2 0x11AB PUSH1 0x50 DUP4 PUSH2 0x1AB0 JUMP JUMPDEST SWAP1 POP PUSH2 0x11B9 PUSH1 0x50 PUSH1 0x64 PUSH2 0x1AB0 JUMP JUMPDEST PUSH2 0x11CB PUSH8 0x58D15E176280000 DUP4 PUSH2 0x1A4B JUMP JUMPDEST PUSH2 0x11D5 SWAP2 SWAP1 PUSH2 0x1A62 JUMP JUMPDEST PUSH2 0x11EE PUSH8 0x11C37937E080000 PUSH7 0x470DE4DF820000 PUSH2 0x1A84 JUMP JUMPDEST PUSH2 0xD64 SWAP2 SWAP1 PUSH2 0x1A84 JUMP JUMPDEST PUSH2 0x1200 PUSH2 0x1596 JUMP JUMPDEST CALLER PUSH1 0x0 SWAP1 DUP2 MSTORE PUSH1 0x3 PUSH1 0x20 MSTORE PUSH1 0x40 SWAP1 KECCAK256 SLOAD DUP3 LT PUSH2 0x1255 JUMPI PUSH1 0x40 MLOAD PUSH3 0x461BCD PUSH1 0xE5 SHL DUP2 MSTORE PUSH1 0x20 PUSH1 0x4 DUP3 ADD MSTORE PUSH1 0x14 PUSH1 0x24 DUP3 ADD MSTORE PUSH20 0x92DCECC2D8D2C840C4DEE4E4DEEE40D2DCC8CAF PUSH1 0x63 SHL PUSH1 0x44 DUP3 ADD MSTORE PUSH1 0x64 ADD PUSH2 0x684 JUMP JUMPDEST CALLER PUSH1 0x0 SWAP1 DUP2 MSTORE PUSH1 0x3 PUSH1 0x20 MSTORE PUSH1 0x40 DUP2 KECCAK256 DUP1 SLOAD DUP5 SWAP1 DUP2 LT PUSH2 0x1276 JUMPI PUSH2 0x1276 PUSH2 0x1A1F JUMP JUMPDEST SWAP1 PUSH1 0x0 MSTORE PUSH1 0x20 PUSH1 0x0 KECCAK256 SWAP1 PUSH1 0x6 MUL ADD SWAP1 POP PUSH1 0x0 DUP2 PUSH1 0x1 ADD SLOAD GT PUSH2 0x12D2 JUMPI PUSH1 0x40 MLOAD PUSH3 0x461BCD PUSH1 0xE5 SHL DUP2 MSTORE PUSH1 0x20 PUSH1 0x4 DUP3 ADD MSTORE PUSH1 0x15 PUSH1 0x24 DUP3 ADD MSTORE PUSH21 0x109BDC9C9BDDC8185B1C9958591E481C995C185A59 PUSH1 0x5A SHL PUSH1 0x44 DUP3 ADD MSTORE PUSH1 0x64 ADD PUSH2 0x684 JUMP JUMPDEST PUSH2 0x12DC CALLER DUP5 PUSH2 0x17C0 JUMP JUMPDEST PUSH1 0x0 DUP2 PUSH1 0x4 ADD SLOAD DUP3 PUSH1 0x1 ADD SLOAD PUSH2 0x12F2 SWAP2 SWAP1 PUSH2 0x1A84 JUMP JUMPDEST SWAP1 POP DUP1 DUP4 GT ISZERO PUSH2 0x133A JUMPI PUSH1 0x40 MLOAD PUSH3 0x461BCD PUSH1 0xE5 SHL DUP2 MSTORE PUSH1 0x20 PUSH1 0x4 DUP3 ADD MSTORE PUSH1 0x13 PUSH1 0x24 DUP3 ADD MSTORE PUSH19 0x105B5BDD5B9D08195E18D959591CC81919589D PUSH1 0x6A SHL PUSH1 0x44 DUP3 ADD MSTORE PUSH1 0x64 ADD PUSH2 0x684 JUMP JUMPDEST PUSH1 0x2 DUP3 ADD SLOAD PUSH2 0x1354 SWAP1 PUSH1 0x1 PUSH1 0x1 PUSH1 0xA0 SHL SUB AND CALLER ADDRESS DUP7 PUSH2 0x16C7 JUMP JUMPDEST DUP1 DUP4 LT PUSH2 0x13BD JUMPI PUSH1 0x1 DUP3 ADD SLOAD PUSH1 0x2 DUP4 ADD SLOAD PUSH1 0x1 PUSH1 0x1 PUSH1 0xA0 SHL SUB AND PUSH1 0x0 SWAP1 DUP2 MSTORE PUSH1 0x5 PUSH1 0x20 MSTORE PUSH1 0x40 DUP2 KECCAK256 DUP1 SLOAD SWAP1 SWAP2 SWAP1 PUSH2 0x138C SWAP1 DUP5 SWAP1 PUSH2 0x1AB0 JUMP JUMPDEST SWAP1 SWAP2 SSTORE POP POP DUP2 SLOAD PUSH1 0x7 DUP1 SLOAD PUSH1 0x0 SWAP1 PUSH2 0x13A5 SWAP1 DUP5 SWAP1 PUSH2 0x1AB0 JUMP JUMPDEST SWAP1 SWAP2 SSTORE POP POP PUSH1 0x0 PUSH1 0x1 DUP4 ADD DUP2 SWAP1 SSTORE PUSH1 0x4 DUP4 ADD SSTORE PUSH2 0x144E JUMP JUMPDEST DUP2 PUSH1 0x4 ADD SLOAD DUP4 GT ISZERO PUSH2 0x1434 JUMPI PUSH1 0x0 DUP3 PUSH1 0x4 ADD SLOAD DUP5 PUSH2 0x13DB SWAP2 SWAP1 PUSH2 0x1AB0 JUMP JUMPDEST SWAP1 POP DUP1 DUP4 PUSH1 0x1 ADD PUSH1 0x0 DUP3 DUP3 SLOAD PUSH2 0x13F1 SWAP2 SWAP1 PUSH2 0x1AB0 JUMP JUMPDEST SWAP1 SWAP2 SSTORE POP POP PUSH1 0x0 PUSH1 0x4 DUP5 ADD DUP2 SWAP1 SSTORE PUSH1 0x2 DUP5 ADD SLOAD PUSH1 0x1 PUSH1 0x1 PUSH1 0xA0 SHL SUB AND DUP2 MSTORE PUSH1 0x5 PUSH1 0x20 MSTORE PUSH1 0x40 DUP2 KECCAK256 DUP1 SLOAD DUP4 SWAP3 SWAP1 PUSH2 0x1428 SWAP1 DUP5 SWAP1 PUSH2 0x1AB0 JUMP JUMPDEST SWAP1 SWAP2 SSTORE POP PUSH2 0x144E SWAP2 POP POP JUMP JUMPDEST DUP3 DUP3 PUSH1 0x4 ADD PUSH1 0x0 DUP3 DUP3 SLOAD PUSH2 0x1448 SWAP2 SWAP1 PUSH2 0x1AB0 JUMP JUMPDEST SWAP1 SWAP2 SSTORE POP POP JUMPDEST PUSH1 0x40 DUP1 MLOAD DUP6 DUP2 MSTORE PUSH1 0x20 DUP2 ADD DUP6 SWAP1 MSTORE CALLER SWAP2 PUSH32 0x1B8CD61ED43BEC7C6BDAD3A18FFEE613F99C853D16C50678D248D879E1B43438 SWAP2 ADD PUSH1 0x40 MLOAD DUP1 SWAP2 SUB SWAP1 LOG2 POP POP PUSH2 0xD31 PUSH1 0x1 DUP1 SSTORE JUMP JUMPDEST PUSH2 0x149C PUSH2 0x1569 JUMP JUMPDEST PUSH1 0x1 PUSH1 0x1 PUSH1 0xA0 SHL SUB DUP2 AND PUSH2 0x14C6 JUMPI PUSH1 0x40 MLOAD PUSH4 0x1E4FBDF7 PUSH1 0xE0 SHL DUP2 MSTORE PUSH1 0x0 PUSH1 0x4 DUP3 ADD MSTORE PUSH1 0x24 ADD PUSH2 0x684 JUMP JUMPDEST PUSH2 0x821 DUP2 PUSH2 0x1770 JUMP JUMPDEST PUSH2 0x14D7 PUSH2 0x1569 JUMP JUMPDEST PUSH1 0x1 PUSH1 0x1 PUSH1 0xA0 SHL SUB DUP2 AND PUSH2 0x151D JUMPI PUSH1 0x40 MLOAD PUSH3 0x461BCD PUSH1 0xE5 SHL DUP2 MSTORE PUSH1 0x20 PUSH1 0x4 DUP3 ADD MSTORE PUSH1 0xD PUSH1 0x24 DUP3 ADD MSTORE PUSH13 0x125B9D985B1A5908185CDCD95D PUSH1 0x9A SHL PUSH1 0x44 DUP3 ADD MSTORE PUSH1 0x64 ADD PUSH2 0x684 JUMP JUMPDEST PUSH1 0x1 PUSH1 0x1 PUSH1 0xA0 SHL SUB DUP2 AND PUSH1 0x0 DUP2 DUP2 MSTORE PUSH1 0x4 PUSH1 0x20 MSTORE PUSH1 0x40 DUP1 DUP3 KECCAK256 DUP1 SLOAD PUSH1 0xFF NOT AND PUSH1 0x1 OR SWAP1 SSTORE MLOAD PUSH32 0xE3C58EBFB2E7465FBB1C32E6B4F40C3C4F5CA77E8218A386AFF8617831260D7 SWAP2 SWAP1 LOG2 POP JUMP JUMPDEST PUSH1 0x0 SLOAD PUSH1 0x1 PUSH1 0x1 PUSH1 0xA0 SHL SUB AND CALLER EQ PUSH2 0xDBA JUMPI PUSH1 0x40 MLOAD PUSH4 0x118CDAA7 PUSH1 0xE0 SHL DUP2 MSTORE CALLER PUSH1 0x4 DUP3 ADD MSTORE PUSH1 0x24 ADD PUSH2 0x684 JUMP JUMPDEST PUSH1 0x2 PUSH1 0x1 SLOAD SUB PUSH2 0x15B9 JUMPI PUSH1 0x40 MLOAD PUSH4 0x3EE5AEB5 PUSH1 0xE0 SHL DUP2 MSTORE PUSH1 0x4 ADD PUSH1 0x40 MLOAD DUP1 SWAP2 SUB SWAP1 REVERT JUMPDEST PUSH1 0x2 PUSH1 0x1 SSTORE JUMP JUMPDEST PUSH1 0x1 PUSH1 0x1 PUSH1 0xA0 SHL SUB DUP2 AND PUSH1 0x0 SWAP1 DUP2 MSTORE PUSH1 0x2 PUSH1 0x20 MSTORE PUSH1 0x40 DUP2 KECCAK256 DUP1 SLOAD SWAP1 SWAP2 SUB PUSH2 0x15E5 JUMPI POP POP JUMP JUMPDEST PUSH1 0x0 DUP2 PUSH1 0x3 ADD SLOAD TIMESTAMP PUSH2 0x15F7 SWAP2 SWAP1 PUSH2 0x1AB0 JUMP JUMPDEST SWAP1 POP PUSH1 0x0 PUSH2 0x1603 PUSH2 0xD35 JUMP JUMPDEST SWAP1 POP PUSH1 0x0 PUSH11 0x1A1601FC4EA7109E000000 DUP4 DUP4 DUP7 PUSH1 0x0 ADD SLOAD PUSH2 0x1624 SWAP2 SWAP1 PUSH2 0x1A4B JUMP JUMPDEST PUSH2 0x162E SWAP2 SWAP1 PUSH2 0x1A4B JUMP JUMPDEST PUSH2 0x1638 SWAP2 SWAP1 PUSH2 0x1A62 JUMP JUMPDEST SWAP1 POP DUP1 DUP5 PUSH1 0x2 ADD PUSH1 0x0 DUP3 DUP3 SLOAD PUSH2 0x164E SWAP2 SWAP1 PUSH2 0x1A84 JUMP JUMPDEST SWAP1 SWAP2 SSTORE POP POP TIMESTAMP PUSH1 0x3 SWAP1 SWAP5 ADD SWAP4 SWAP1 SWAP4 SSTORE POP POP POP POP JUMP JUMPDEST PUSH1 0x40 MLOAD PUSH1 0x1 PUSH1 0x1 PUSH1 0xA0 SHL SUB DUP4 DUP2 AND PUSH1 0x24 DUP4 ADD MSTORE PUSH1 0x44 DUP3 ADD DUP4 SWAP1 MSTORE PUSH2 0x16C2 SWAP2 DUP6 SWAP2 DUP3 AND SWAP1 PUSH4 0xA9059CBB SWAP1 PUSH1 0x64 ADD JUMPDEST PUSH1 0x40 MLOAD PUSH1 0x20 DUP2 DUP4 SUB SUB DUP2 MSTORE SWAP1 PUSH1 0x40 MSTORE SWAP2 POP PUSH1 0xE0 SHL PUSH1 0x20 DUP3 ADD DUP1 MLOAD PUSH1 0x1 PUSH1 0x1 PUSH1 0xE0 SHL SUB DUP4 DUP2 DUP4 AND OR DUP4 MSTORE POP POP POP POP PUSH2 0x188A JUMP JUMPDEST POP POP POP JUMP JUMPDEST PUSH1 0x40 MLOAD PUSH1 0x1 PUSH1 0x1 PUSH1 0xA0 SHL SUB DUP5 DUP2 AND PUSH1 0x24 DUP4 ADD MSTORE DUP4 DUP2 AND PUSH1 0x44 DUP4 ADD MSTORE PUSH1 0x64 DUP3 ADD DUP4 SWAP1 MSTORE PUSH2 0x1700 SWAP2 DUP7 SWAP2 DUP3 AND SWAP1 PUSH4 0x23B872DD SWAP1 PUSH1 0x84 ADD PUSH2 0x1690 JUMP JUMPDEST POP POP POP POP JUMP JUMPDEST PUSH1 0x0 DUP1 DUP1 JUMPDEST CALLER PUSH1 0x0 SWAP1 DUP2 MSTORE PUSH1 0x3 PUSH1 0x20 MSTORE PUSH1 0x40 SWAP1 KECCAK256 SLOAD DUP2 LT ISZERO PUSH2 0x176A JUMPI CALLER PUSH1 0x0 SWAP1 DUP2 MSTORE PUSH1 0x3 PUSH1 0x20 MSTORE PUSH1 0x40 SWAP1 KECCAK256 DUP1 SLOAD DUP3 SWAP1 DUP2 LT PUSH2 0x1743 JUMPI PUSH2 0x1743 PUSH2 0x1A1F JUMP JUMPDEST SWAP1 PUSH1 0x0 MSTORE PUSH1 0x20 PUSH1 0x0 KECCAK256 SWAP1 PUSH1 0x6 MUL ADD PUSH1 0x1 ADD SLOAD DUP3 PUSH2 0x1760 SWAP2 SWAP1 PUSH2 0x1A84 JUMP JUMPDEST SWAP2 POP PUSH1 0x1 ADD PUSH2 0x170B JUMP JUMPDEST POP SWAP2 SWAP1 POP JUMP JUMPDEST PUSH1 0x0 DUP1 SLOAD PUSH1 0x1 PUSH1 0x1 PUSH1 0xA0 SHL SUB DUP4 DUP2 AND PUSH1 0x1 PUSH1 0x1 PUSH1 0xA0 SHL SUB NOT DUP4 AND DUP2 OR DUP5 SSTORE PUSH1 0x40 MLOAD SWAP2 SWAP1 SWAP3 AND SWAP3 DUP4 SWAP2 PUSH32 0x8BE0079C531659141344CD1FD0A4F28419497F9722A3DAAFE3B4186F6B6457E0 SWAP2 SWAP1 LOG3 POP POP JUMP JUMPDEST PUSH1 0x1 PUSH1 0x1 PUSH1 0xA0 SHL SUB DUP3 AND PUSH1 0x0 SWAP1 DUP2 MSTORE PUSH1 0x3 PUSH1 0x20 MSTORE PUSH1 0x40 DUP2 KECCAK256 DUP1 SLOAD DUP4 SWAP1 DUP2 LT PUSH2 0x17EA JUMPI PUSH2 0x17EA PUSH2 0x1A1F JUMP JUMPDEST SWAP1 PUSH1 0x0 MSTORE PUSH1 0x20 PUSH1 0x0 KECCAK256 SWAP1 PUSH1 0x6 MUL ADD SWAP1 POP DUP1 PUSH1 0x1 ADD SLOAD PUSH1 0x0 SUB PUSH2 0x180B JUMPI POP POP POP JUMP JUMPDEST PUSH1 0x0 DUP2 PUSH1 0x5 ADD SLOAD TIMESTAMP PUSH2 0x181D SWAP2 SWAP1 PUSH2 0x1AB0 JUMP JUMPDEST SWAP1 POP PUSH1 0x0 PUSH2 0x1829 PUSH2 0x115A JUMP JUMPDEST SWAP1 POP PUSH1 0x0 PUSH11 0x1A1601FC4EA7109E000000 DUP4 DUP4 DUP7 PUSH1 0x1 ADD SLOAD PUSH2 0x184A SWAP2 SWAP1 PUSH2 0x1A4B JUMP JUMPDEST PUSH2 0x1854 SWAP2 SWAP1 PUSH2 0x1A4B JUMP JUMPDEST PUSH2 0x185E SWAP2 SWAP1 PUSH2 0x1A62 JUMP JUMPDEST SWAP1 POP DUP1 DUP5 PUSH1 0x4 ADD PUSH1 0x0 DUP3 DUP3 SLOAD PUSH2 0x1874 SWAP2 SWAP1 PUSH2 0x1A84 JUMP JUMPDEST SWAP1 SWAP2 SSTORE POP POP TIMESTAMP PUSH1 0x5 SWAP1 SWAP5 ADD SWAP4 SWAP1 SWAP4 SSTORE POP POP POP POP POP JUMP JUMPDEST PUSH1 0x0 DUP1 PUSH1 0x20 PUSH1 0x0 DUP5 MLOAD PUSH1 0x20 DUP7 ADD PUSH1 0x0 DUP9 GAS CALL DUP1 PUSH2 0x18AD JUMPI PUSH1 0x40 MLOAD RETURNDATASIZE PUSH1 0x0 DUP3 RETURNDATACOPY RETURNDATASIZE DUP2 REVERT JUMPDEST POP POP PUSH1 0x0 MLOAD RETURNDATASIZE SWAP2 POP DUP2 ISZERO PUSH2 0x18C5 JUMPI DUP1 PUSH1 0x1 EQ ISZERO PUSH2 0x18D2 JUMP JUMPDEST PUSH1 0x1 PUSH1 0x1 PUSH1 0xA0 SHL SUB DUP5 AND EXTCODESIZE ISZERO JUMPDEST ISZERO PUSH2 0x1700 JUMPI PUSH1 0x40 MLOAD PUSH4 0x5274AFE7 PUSH1 0xE0 SHL DUP2 MSTORE PUSH1 0x1 PUSH1 0x1 PUSH1 0xA0 SHL SUB DUP6 AND PUSH1 0x4 DUP3 ADD MSTORE PUSH1 0x24 ADD PUSH2 0x684 JUMP JUMPDEST DUP1 CALLDATALOAD PUSH1 0x1 PUSH1 0x1 PUSH1 0xA0 SHL SUB DUP2 AND DUP2 EQ PUSH2 0x1912 JUMPI PUSH1 0x0 DUP1 REVERT JUMPDEST SWAP2 SWAP1 POP JUMP JUMPDEST PUSH1 0x0 DUP1 PUSH1 0x40 DUP4 DUP6 SUB SLT ISZERO PUSH2 0x192A JUMPI PUSH1 0x0 DUP1 REVERT JUMPDEST PUSH2 0x1933 DUP4 PUSH2 0x18FB JUMP JUMPDEST SWAP5 PUSH1 0x20 SWAP4 SWAP1 SWAP4 ADD CALLDATALOAD SWAP4 POP POP POP JUMP JUMPDEST PUSH1 0x0 PUSH1 0x20 DUP3 DUP5 SUB SLT ISZERO PUSH2 0x1953 JUMPI PUSH1 0x0 DUP1 REVERT JUMPDEST PUSH2 0x195C DUP3 PUSH2 0x18FB JUMP JUMPDEST SWAP4 SWAP3 POP POP POP JUMP JUMPDEST PUSH1 0x0 PUSH1 0x20 DUP3 DUP5 SUB SLT ISZERO PUSH2 0x1975 JUMPI PUSH1 0x0 DUP1 REVERT JUMPDEST POP CALLDATALOAD SWAP2 SWAP1 POP JUMP JUMPDEST PUSH1 0x20 DUP1 DUP3 MSTORE DUP3 MLOAD DUP3 DUP3 ADD DUP2 SWAP1 MSTORE PUSH1 0x0 SWAP2 SWAP1 PUSH1 0x40 SWAP1 DUP2 DUP6 ADD SWAP1 DUP7 DUP5 ADD DUP6 JUMPDEST DUP3 DUP2 LT ISZERO PUSH2 0x19F0 JUMPI DUP2 MLOAD DUP1 MLOAD DUP6 MSTORE DUP7 DUP2 ADD MLOAD DUP8 DUP7 ADD MSTORE DUP6 DUP2 ADD MLOAD PUSH1 0x1 PUSH1 0x1 PUSH1 0xA0 SHL SUB AND DUP7 DUP7 ADD MSTORE PUSH1 0x60 DUP1 DUP3 ADD MLOAD SWAP1 DUP7 ADD MSTORE PUSH1 0x80 DUP1 DUP3 ADD MLOAD SWAP1 DUP7 ADD MSTORE PUSH1 0xA0 SWAP1 DUP2 ADD MLOAD SWAP1 DUP6 ADD MSTORE PUSH1 0xC0 SWAP1 SWAP4 ADD SWAP3 SWAP1 DUP6 ADD SWAP1 PUSH1 0x1 ADD PUSH2 0x1999 JUMP JUMPDEST POP SWAP2 SWAP8 SWAP7 POP POP POP POP POP POP POP JUMP JUMPDEST PUSH1 0x0 DUP1 PUSH1 0x40 DUP4 DUP6 SUB SLT ISZERO PUSH2 0x1A10 JUMPI PUSH1 0x0 DUP1 REVERT JUMPDEST POP POP DUP1 CALLDATALOAD SWAP3 PUSH1 0x20 SWAP1 SWAP2 ADD CALLDATALOAD SWAP2 POP JUMP JUMPDEST PUSH4 0x4E487B71 PUSH1 0xE0 SHL PUSH1 0x0 MSTORE PUSH1 0x32 PUSH1 0x4 MSTORE PUSH1 0x24 PUSH1 0x0 REVERT JUMPDEST PUSH4 0x4E487B71 PUSH1 0xE0 SHL PUSH1 0x0 MSTORE PUSH1 0x11 PUSH1 0x4 MSTORE PUSH1 0x24 PUSH1 0x0 REVERT JUMPDEST DUP1 DUP3 MUL DUP2 ISZERO DUP3 DUP3 DIV DUP5 EQ OR PUSH2 0x5D3 JUMPI PUSH2 0x5D3 PUSH2 0x1A35 JUMP JUMPDEST PUSH1 0x0 DUP3 PUSH2 0x1A7F JUMPI PUSH4 0x4E487B71 PUSH1 0xE0 SHL PUSH1 0x0 MSTORE PUSH1 0x12 PUSH1 0x4 MSTORE PUSH1 0x24 PUSH1 0x0 REVERT JUMPDEST POP DIV SWAP1 JUMP JUMPDEST DUP1 DUP3 ADD DUP1 DUP3 GT ISZERO PUSH2 0x5D3 JUMPI PUSH2 0x5D3 PUSH2 0x1A35 JUMP JUMPDEST PUSH1 0x0 PUSH1 0x20 DUP3 DUP5 SUB SLT ISZERO PUSH2 0x1AA9 JUMPI PUSH1 0x0 DUP1 REVERT JUMPDEST POP MLOAD SWAP2 SWAP1 POP JUMP JUMPDEST DUP2 DUP2 SUB DUP2 DUP2 GT ISZERO PUSH2 0x5D3 JUMPI PUSH2 0x5D3 PUSH2 0x1A35 JUMP INVALID LOG2 PUSH5 0x6970667358 0x22 SLT KECCAK256 0xC1 CREATE2 0xC6 0x4C PUSH29 0x7A79A4CE84046A04C4A4F16ABABE7373ACEFE0317CE7D3C0BE811A6473 PUSH16 0x6C634300081800330000000000000000 "},"methodIdentifiers":{"BASE_RATE()":"41910f90","LIQUIDATION_PENALTY()":"9b8621d5","LIQUIDATION_THRESHOLD()":"90a8ae9b","LTV_RATIO()":"5696b189","OPTIMAL_UTILIZATION()":"cf762dfa","PRECISION()":"aaf5eb68","RATE_SLOPE_1()":"211ecbcb","RATE_SLOPE_2()":"3d4e3da8","addSupportedAsset(address)":"fac09e87","borrow(address,uint256)":"4b8a3529","borrowAPY()":"cabca643","borrows(address,uint256)":"397ef642","calculateHealthFactor(address,uint256)":"0d408512","collateralToken()":"b2016bd4","getTotalBorrowed(address)":"84212635","getUserBorrows(address)":"338a1996","liquidate(address,uint256)":"bcbaf487","owner()":"8da5cb5b","removeSupportedAsset(address)":"1c46bc6f","renounceOwnership()":"715018a6","repay(uint256,uint256)":"d8aed145","supplies(address)":"274cee31","supply(uint256)":"35403023","supplyAPY()":"5733d948","supportedAssets(address)":"bd81579e","totalBorrowedByAsset(address)":"93bce638","totalCollateral()":"4ac8eb5f","totalSupplied()":"630fd0ac","transferOwnership(address)":"f2fde38b","utilizationRate()":"6c321c8a","withdraw(uint256)":"2e1a7d4d"}}}}}